{
  "contractName": "Mapping",
  "abi": [
    {
      "constant": true,
      "inputs": [
        {
          "name": "",
          "type": "uint256"
        }
      ],
      "name": "shares",
      "outputs": [
        {
          "name": "hash",
          "type": "string"
        },
        {
          "name": "name",
          "type": "string"
        },
        {
          "name": "owner",
          "type": "address"
        }
      ],
      "payable": false,
      "stateMutability": "view",
      "type": "function"
    },
    {
      "constant": true,
      "inputs": [
        {
          "name": "",
          "type": "address"
        }
      ],
      "name": "rsaHashStore",
      "outputs": [
        {
          "name": "",
          "type": "string"
        }
      ],
      "payable": false,
      "stateMutability": "view",
      "type": "function"
    },
    {
      "constant": true,
      "inputs": [
        {
          "name": "",
          "type": "address"
        },
        {
          "name": "",
          "type": "uint256"
        }
      ],
      "name": "receivers",
      "outputs": [
        {
          "name": "",
          "type": "uint256"
        }
      ],
      "payable": false,
      "stateMutability": "view",
      "type": "function"
    },
    {
      "constant": true,
      "inputs": [
        {
          "name": "",
          "type": "address"
        },
        {
          "name": "",
          "type": "uint256"
        }
      ],
      "name": "senders",
      "outputs": [
        {
          "name": "",
          "type": "uint256"
        }
      ],
      "payable": false,
      "stateMutability": "view",
      "type": "function"
    },
    {
      "anonymous": false,
      "inputs": [
        {
          "indexed": false,
          "name": "_oldHash",
          "type": "string"
        },
        {
          "indexed": false,
          "name": "_newHash",
          "type": "string"
        }
      ],
      "name": "UpdateShare",
      "type": "event"
    },
    {
      "anonymous": false,
      "inputs": [
        {
          "indexed": false,
          "name": "_hash",
          "type": "string"
        }
      ],
      "name": "RemoveShare",
      "type": "event"
    },
    {
      "anonymous": false,
      "inputs": [
        {
          "indexed": false,
          "name": "_hash",
          "type": "string"
        }
      ],
      "name": "CreateShare",
      "type": "event"
    },
    {
      "anonymous": false,
      "inputs": [
        {
          "indexed": false,
          "name": "_pubKey",
          "type": "string"
        }
      ],
      "name": "CreatePublicKey",
      "type": "event"
    },
    {
      "constant": false,
      "inputs": [
        {
          "name": "newHash",
          "type": "string"
        },
        {
          "name": "newName",
          "type": "string"
        }
      ],
      "name": "createShare",
      "outputs": [
        {
          "name": "",
          "type": "uint256"
        }
      ],
      "payable": false,
      "stateMutability": "nonpayable",
      "type": "function"
    },
    {
      "constant": true,
      "inputs": [
        {
          "name": "index",
          "type": "uint256"
        }
      ],
      "name": "getShareHash",
      "outputs": [
        {
          "name": "",
          "type": "string"
        }
      ],
      "payable": false,
      "stateMutability": "view",
      "type": "function"
    },
    {
      "constant": true,
      "inputs": [
        {
          "name": "index",
          "type": "uint256"
        }
      ],
      "name": "getHashForUint",
      "outputs": [
        {
          "name": "",
          "type": "string"
        }
      ],
      "payable": false,
      "stateMutability": "view",
      "type": "function"
    },
    {
      "constant": true,
      "inputs": [
        {
          "name": "index",
          "type": "uint256"
        }
      ],
      "name": "getShareName",
      "outputs": [
        {
          "name": "",
          "type": "string"
        }
      ],
      "payable": false,
      "stateMutability": "view",
      "type": "function"
    },
    {
      "constant": true,
      "inputs": [
        {
          "name": "index",
          "type": "uint256"
        }
      ],
      "name": "getNameForUint",
      "outputs": [
        {
          "name": "",
          "type": "string"
        }
      ],
      "payable": false,
      "stateMutability": "view",
      "type": "function"
    },
    {
      "constant": true,
      "inputs": [
        {
          "name": "index",
          "type": "uint256"
        }
      ],
      "name": "getShareReceivers",
      "outputs": [
        {
          "name": "",
          "type": "address[]"
        }
      ],
      "payable": false,
      "stateMutability": "view",
      "type": "function"
    },
    {
      "constant": true,
      "inputs": [],
      "name": "getReceivedShares",
      "outputs": [
        {
          "name": "",
          "type": "uint256[]"
        }
      ],
      "payable": false,
      "stateMutability": "view",
      "type": "function"
    },
    {
      "constant": true,
      "inputs": [],
      "name": "getSentShares",
      "outputs": [
        {
          "name": "",
          "type": "uint256[]"
        }
      ],
      "payable": false,
      "stateMutability": "view",
      "type": "function"
    },
    {
      "constant": false,
      "inputs": [
        {
          "name": "index",
          "type": "uint256"
        },
        {
          "name": "receiver",
          "type": "address"
        },
        {
          "name": "newHash",
          "type": "string"
        }
      ],
      "name": "addToShareAndUpdateHash",
      "outputs": [],
      "payable": false,
      "stateMutability": "nonpayable",
      "type": "function"
    },
    {
      "constant": false,
      "inputs": [
        {
          "name": "index",
          "type": "uint256"
        },
        {
          "name": "receiver",
          "type": "address"
        }
      ],
      "name": "addToShare",
      "outputs": [],
      "payable": false,
      "stateMutability": "nonpayable",
      "type": "function"
    },
    {
      "constant": false,
      "inputs": [
        {
          "name": "index",
          "type": "uint256"
        }
      ],
      "name": "removeShare",
      "outputs": [],
      "payable": false,
      "stateMutability": "nonpayable",
      "type": "function"
    },
    {
      "constant": false,
      "inputs": [
        {
          "name": "index",
          "type": "uint256"
        },
        {
          "name": "receiver",
          "type": "address"
        },
        {
          "name": "newHash",
          "type": "string"
        }
      ],
      "name": "revokeShareAndUpdateHash",
      "outputs": [],
      "payable": false,
      "stateMutability": "nonpayable",
      "type": "function"
    },
    {
      "constant": false,
      "inputs": [
        {
          "name": "index",
          "type": "uint256"
        },
        {
          "name": "newHash",
          "type": "string"
        }
      ],
      "name": "updateHash",
      "outputs": [],
      "payable": false,
      "stateMutability": "nonpayable",
      "type": "function"
    },
    {
      "constant": false,
      "inputs": [
        {
          "name": "index",
          "type": "uint256"
        },
        {
          "name": "newName",
          "type": "string"
        }
      ],
      "name": "updateName",
      "outputs": [],
      "payable": false,
      "stateMutability": "nonpayable",
      "type": "function"
    },
    {
      "constant": true,
      "inputs": [
        {
          "name": "hash",
          "type": "string"
        },
        {
          "name": "name",
          "type": "string"
        }
      ],
      "name": "getIndexFor",
      "outputs": [
        {
          "name": "",
          "type": "uint256"
        }
      ],
      "payable": false,
      "stateMutability": "view",
      "type": "function"
    },
    {
      "constant": false,
      "inputs": [
        {
          "name": "pubkey",
          "type": "string"
        }
      ],
      "name": "setPubKeyHash",
      "outputs": [],
      "payable": false,
      "stateMutability": "nonpayable",
      "type": "function"
    },
    {
      "constant": true,
      "inputs": [
        {
          "name": "adr",
          "type": "address"
        }
      ],
      "name": "getPubKeyHashFor",
      "outputs": [
        {
          "name": "",
          "type": "string"
        }
      ],
      "payable": false,
      "stateMutability": "view",
      "type": "function"
    },
    {
      "constant": true,
      "inputs": [],
      "name": "getPubKeyHash",
      "outputs": [
        {
          "name": "",
          "type": "string"
        }
      ],
      "payable": false,
      "stateMutability": "view",
      "type": "function"
    },
    {
      "constant": true,
      "inputs": [
        {
          "name": "a",
          "type": "address"
        }
      ],
      "name": "getReceivedSharesFor",
      "outputs": [
        {
          "name": "",
          "type": "uint256[]"
        }
      ],
      "payable": false,
      "stateMutability": "view",
      "type": "function"
    }
  ],
  "bytecode": "0x608060405234801561001057600080fd5b50613228806100206000396000f300608060405260043610610133576000357c0100000000000000000000000000000000000000000000000000000000900463ffffffff1680630f6c9ab6146101385780632170424814610161578063345e0f821461019e5780633bc75f1b146101c75780633e5c49a1146101f05780633edac5a71461022d57806341d431d1146102565780635343d8991461028157806353e76f2c146102aa57806356cde414146102d357806357a858fc146103105780635fcc5e361461034f5780636a5b26711461038c578063921ff712146103c95780639256d9fa146103f4578063a105a89e14610431578063a22e364c1461045c578063ae5ddef714610499578063bd5156d2146104d6578063c150c5db14610513578063c431357314610550578063cb0789cf1461058d578063f5217039146105ca575b600080fd5b34801561014457600080fd5b5061015f600480360361015a9190810190612d84565b6105f3565b005b34801561016d57600080fd5b5061018860048036036101839190810190612cb8565b61072c565b6040516101959190612fb5565b60405180910390f35b3480156101aa57600080fd5b506101c560048036036101c09190810190612d1d565b6107ee565b005b3480156101d357600080fd5b506101ee60048036036101e99190810190612ce1565b610932565b005b3480156101fc57600080fd5b5061021760048036036102129190810190612ba6565b610a3d565b6040516102249190612fb5565b60405180910390f35b34801561023957600080fd5b50610254600480360361024f9190810190612cb8565b610b1e565b005b34801561026257600080fd5b5061026b610def565b6040516102789190612fb5565b60405180910390f35b34801561028d57600080fd5b506102a860048036036102a39190810190612c0b565b610ece565b005b3480156102b657600080fd5b506102d160048036036102cc9190810190612d84565b610f5c565b005b3480156102df57600080fd5b506102fa60048036036102f59190810190612c4c565b610f9e565b6040516103079190613073565b60405180910390f35b34801561031c57600080fd5b5061033760048036036103329190810190612cb8565b6111c1565b6040516103469392919061300e565b60405180910390f35b34801561035b57600080fd5b5061037660048036036103719190810190612cb8565b61134a565b6040516103839190612fb5565b60405180910390f35b34801561039857600080fd5b506103b360048036036103ae9190810190612ba6565b61140c565b6040516103c09190612f93565b60405180910390f35b3480156103d557600080fd5b506103de6114bc565b6040516103eb9190612f71565b60405180910390f35b34801561040057600080fd5b5061041b60048036036104169190810190612cb8565b611551565b6040516104289190612fb5565b60405180910390f35b34801561043d57600080fd5b50610446611613565b6040516104539190612f71565b60405180910390f35b34801561046857600080fd5b50610483600480360361047e9190810190612bcf565b6116a8565b6040516104909190613073565b60405180910390f35b3480156104a557600080fd5b506104c060048036036104bb9190810190612cb8565b6116d8565b6040516104cd9190612fb5565b60405180910390f35b3480156104e257600080fd5b506104fd60048036036104f89190810190612c4c565b61179a565b60405161050a9190613073565b60405180910390f35b34801561051f57600080fd5b5061053a60048036036105359190810190612cb8565b61199e565b6040516105479190612f4f565b60405180910390f35b34801561055c57600080fd5b5061057760048036036105729190810190612ba6565b611a4c565b6040516105849190612f71565b60405180910390f35b34801561059957600080fd5b506105b460048036036105af9190810190612bcf565b611ae3565b6040516105c19190613073565b60405180910390f35b3480156105d657600080fd5b506105f160048036036105ec9190810190612d1d565b611b13565b005b60606105fe83611c57565b60008381548110151561060d57fe5b90600052602060002090600402016000018054600181600116156101000203166002900480601f0160208091040260200160405190810160405280929190818152602001828054600181600116156101000203166002900480156106b25780601f10610687576101008083540402835291602001916106b2565b820191906000526020600020905b81548152906001019060200180831161069557829003601f168201915b50505050509050816000848154811015156106c957fe5b906000526020600020906004020160000190805190602001906106ed92919061289f565b507fcf0e184de3e985f737bc6858615416c8efb00313c3d18648420877823bd721d4818360405161071f929190612fd7565b60405180910390a1505050565b606060008281548110151561073d57fe5b90600052602060002090600402016000018054600181600116156101000203166002900480601f0160208091040260200160405190810160405280929190818152602001828054600181600116156101000203166002900480156107e25780601f106107b7576101008083540402835291602001916107e2565b820191906000526020600020905b8154815290600101906020018083116107c557829003601f168201915b50505050509050919050565b60606107f984611c57565b6108038484611d7b565b60008481548110151561081257fe5b90600052602060002090600402016000018054600181600116156101000203166002900480601f0160208091040260200160405190810160405280929190818152602001828054600181600116156101000203166002900480156108b75780601f1061088c576101008083540402835291602001916108b7565b820191906000526020600020905b81548152906001019060200180831161089a57829003601f168201915b50505050509050816000858154811015156108ce57fe5b906000526020600020906004020160000190805190602001906108f292919061289f565b507fcf0e184de3e985f737bc6858615416c8efb00313c3d18648420877823bd721d48183604051610924929190612fd7565b60405180910390a150505050565b61093b82611c57565b6109458282611d93565b1515610a395760008281548110151561095a57fe5b90600052602060002090600402016002018190806001815401808255809150509060018203906000526020600020016000909192909190916101000a81548173ffffffffffffffffffffffffffffffffffffffff021916908373ffffffffffffffffffffffffffffffffffffffff16021790555050600160008273ffffffffffffffffffffffffffffffffffffffff1673ffffffffffffffffffffffffffffffffffffffff1681526020019081526020016000208290806001815401808255809150509060018203906000526020600020016000909192909190915055505b5050565b6060600360008373ffffffffffffffffffffffffffffffffffffffff1673ffffffffffffffffffffffffffffffffffffffff1681526020019081526020016000208054600181600116156101000203166002900480601f016020809104026020016040519081016040528092919081815260200182805460018160011615610100020316600290048015610b125780601f10610ae757610100808354040283529160200191610b12565b820191906000526020600020905b815481529060010190602001808311610af557829003601f168201915b50505050509050919050565b606060006060610b2c61291f565b610b3585611c57565b600085815481101515610b4457fe5b90600052602060002090600402016000018054600181600116156101000203166002900480601f016020809104026020016040519081016040528092919081815260200182805460018160011615610100020316600290048015610be95780601f10610bbe57610100808354040283529160200191610be9565b820191906000526020600020905b815481529060010190602001808311610bcc57829003601f168201915b50505050509350600092505b600085815481101515610c0457fe5b906000526020600020906004020160020180549050831015610c8e57610c8185600087815481101515610c3357fe5b906000526020600020906004020160020185815481101515610c5157fe5b9060005260206000200160009054906101000a900473ffffffffffffffffffffffffffffffffffffffff16611e2d565b8280600101935050610bf5565b610c9785611e74565b6080604051908101604052806020604051908101604052806000815250815260200160206040519081016040528060008152508152602001838152602001600073ffffffffffffffffffffffffffffffffffffffff16815250905080600086815481101515610d0257fe5b90600052602060002090600402016000820151816000019080519060200190610d2c92919061295e565b506020820151816001019080519060200190610d4992919061295e565b506040820151816002019080519060200190610d669291906129de565b5060608201518160030160006101000a81548173ffffffffffffffffffffffffffffffffffffffff021916908373ffffffffffffffffffffffffffffffffffffffff1602179055509050507fb59b0b73a6d7c91b46729bff2c37ebc55f1fa4b33ddec8702f4b860697e459da84604051610de09190612fb5565b60405180910390a15050505050565b6060600360003373ffffffffffffffffffffffffffffffffffffffff1673ffffffffffffffffffffffffffffffffffffffff1681526020019081526020016000208054600181600116156101000203166002900480601f016020809104026020016040519081016040528092919081815260200182805460018160011615610100020316600290048015610ec45780601f10610e9957610100808354040283529160200191610ec4565b820191906000526020600020905b815481529060010190602001808311610ea757829003601f168201915b5050505050905090565b80600360003373ffffffffffffffffffffffffffffffffffffffff1673ffffffffffffffffffffffffffffffffffffffff1681526020019081526020016000209080519060200190610f2192919061289f565b507f1fb91897edc2a093e3b548fdd11c3143d5b5d00d73f8e1552a8428ed0dfaaa5981604051610f519190612fb5565b60405180910390a150565b610f6582611c57565b80600083815481101515610f7557fe5b90600052602060002090600402016001019080519060200190610f9992919061289f565b505050565b600080600090505b600260003373ffffffffffffffffffffffffffffffffffffffff1673ffffffffffffffffffffffffffffffffffffffff16815260200190815260200160002080549050811015611196576110b260008281548110151561100257fe5b90600052602060002090600402016000018054600181600116156101000203166002900480601f0160208091040260200160405190810160405280929190818152602001828054600181600116156101000203166002900480156110a75780601f1061107c576101008083540402835291602001916110a7565b820191906000526020600020905b81548152906001019060200180831161108a57829003601f168201915b505050505085612016565b801561117c575061117b6000828154811015156110cb57fe5b90600052602060002090600402016001018054600181600116156101000203166002900480601f0160208091040260200160405190810160405280929190818152602001828054600181600116156101000203166002900480156111705780601f1061114557610100808354040283529160200191611170565b820191906000526020600020905b81548152906001019060200180831161115357829003601f168201915b505050505084612016565b5b15611189578091506111ba565b8080600101915050610fa6565b7fffffffffffffffffffffffffffffffffffffffffffffffffffffffffffffffff91505b5092915050565b6000818154811015156111d057fe5b9060005260206000209060040201600091509050806000018054600181600116156101000203166002900480601f01602080910402602001604051908101604052809291908181526020018280546001816001161561010002031660029004801561127c5780601f106112515761010080835404028352916020019161127c565b820191906000526020600020905b81548152906001019060200180831161125f57829003601f168201915b505050505090806001018054600181600116156101000203166002900480601f01602080910402602001604051908101604052809291908181526020018280546001816001161561010002031660029004801561131a5780601f106112ef5761010080835404028352916020019161131a565b820191906000526020600020905b8154815290600101906020018083116112fd57829003601f168201915b5050505050908060030160009054906101000a900473ffffffffffffffffffffffffffffffffffffffff16905083565b606060008281548110151561135b57fe5b90600052602060002090600402016001018054600181600116156101000203166002900480601f0160208091040260200160405190810160405280929190818152602001828054600181600116156101000203166002900480156114005780601f106113d557610100808354040283529160200191611400565b820191906000526020600020905b8154815290600101906020018083116113e357829003601f168201915b50505050509050919050565b60036020528060005260406000206000915090508054600181600116156101000203166002900480601f0160208091040260200160405190810160405280929190818152602001828054600181600116156101000203166002900480156114b45780601f10611489576101008083540402835291602001916114b4565b820191906000526020600020905b81548152906001019060200180831161149757829003601f168201915b505050505081565b6060600260003373ffffffffffffffffffffffffffffffffffffffff1673ffffffffffffffffffffffffffffffffffffffff16815260200190815260200160002080548060200260200160405190810160405280929190818152602001828054801561154757602002820191906000526020600020905b815481526020019060010190808311611533575b5050505050905090565b606060008281548110151561156257fe5b90600052602060002090600402016000018054600181600116156101000203166002900480601f0160208091040260200160405190810160405280929190818152602001828054600181600116156101000203166002900480156116075780601f106115dc57610100808354040283529160200191611607565b820191906000526020600020905b8154815290600101906020018083116115ea57829003601f168201915b50505050509050919050565b6060600160003373ffffffffffffffffffffffffffffffffffffffff1673ffffffffffffffffffffffffffffffffffffffff16815260200190815260200160002080548060200260200160405190810160405280929190818152602001828054801561169e57602002820191906000526020600020905b81548152602001906001019080831161168a575b5050505050905090565b6001602052816000526040600020818154811015156116c357fe5b90600052602060002001600091509150505481565b60606000828154811015156116e957fe5b90600052602060002090600402016001018054600181600116156101000203166002900480601f01602080910402602001604051908101604052809291908181526020018280546001816001161561010002031660029004801561178e5780601f106117635761010080835404028352916020019161178e565b820191906000526020600020905b81548152906001019060200180831161177157829003601f168201915b50505050509050919050565b60008060606117a761291f565b6117b186866120ef565b92507fffffffffffffffffffffffffffffffffffffffffffffffffffffffffffffffff831415156117e457829350611995565b6080604051908101604052808781526020018681526020018381526020013373ffffffffffffffffffffffffffffffffffffffff168152509050600160008290806001815401808255809150509060018203906000526020600020906004020160009091929091909150600082015181600001908051906020019061186a92919061295e565b50602082015181600101908051906020019061188792919061295e565b5060408201518160020190805190602001906118a49291906129de565b5060608201518160030160006101000a81548173ffffffffffffffffffffffffffffffffffffffff021916908373ffffffffffffffffffffffffffffffffffffffff1602179055505050039250600260003373ffffffffffffffffffffffffffffffffffffffff1673ffffffffffffffffffffffffffffffffffffffff1681526020019081526020016000208390806001815401808255809150509060018203906000526020600020016000909192909190915055507f71034d4d59bc16ee62f5dbc52538ee79470087e309b57ac0e5c11b63f7a034eb866040516119899190612fb5565b60405180910390a18293505b50505092915050565b60606000828154811015156119af57fe5b9060005260206000209060040201600201805480602002602001604051908101604052809291908181526020018280548015611a4057602002820191906000526020600020905b8160009054906101000a900473ffffffffffffffffffffffffffffffffffffffff1673ffffffffffffffffffffffffffffffffffffffff16815260200190600101908083116119f6575b50505050509050919050565b6060600160008373ffffffffffffffffffffffffffffffffffffffff1673ffffffffffffffffffffffffffffffffffffffff168152602001908152602001600020805480602002602001604051908101604052809291908181526020018280548015611ad757602002820191906000526020600020905b815481526020019060010190808311611ac3575b50505050509050919050565b600260205281600052604060002081815481101515611afe57fe5b90600052602060002001600091509150505481565b6060611b1e84611c57565b611b288484610932565b600084815481101515611b3757fe5b90600052602060002090600402016000018054600181600116156101000203166002900480601f016020809104026020016040519081016040528092919081815260200182805460018160011615610100020316600290048015611bdc5780601f10611bb157610100808354040283529160200191611bdc565b820191906000526020600020905b815481529060010190602001808311611bbf57829003601f168201915b5050505050905081600085815481101515611bf357fe5b90600052602060002090600402016000019080519060200190611c1792919061289f565b507fcf0e184de3e985f737bc6858615416c8efb00313c3d18648420877823bd721d48183604051611c49929190612fd7565b60405180910390a150505050565b6060600080600260003373ffffffffffffffffffffffffffffffffffffffff1673ffffffffffffffffffffffffffffffffffffffff168152602001908152602001600020805480602002602001604051908101604052809291908181526020018280548015611ce557602002820191906000526020600020905b815481526020019060010190808311611cd1575b5050505050925060009150600090505b8251811015611d3357838382815181101515611d0d57fe5b906020019060200201511415611d265760019150611d33565b8080600101915050611cf5565b811515611d75576040517f08c379a0000000000000000000000000000000000000000000000000000000008152600401611d6c90613053565b60405180910390fd5b50505050565b611d858282611e2d565b611d8f82826122d5565b5050565b6000806000600160008573ffffffffffffffffffffffffffffffffffffffff1673ffffffffffffffffffffffffffffffffffffffff1681526020019081526020016000209150600090505b8180549050811015611e2057848282815481101515611df957fe5b90600052602060002001541415611e135760019250611e25565b8080600101915050611dde565b600092505b505092915050565b6000611e398383612457565b90507fffffffffffffffffffffffffffffffffffffffffffffffffffffffffffffffff81141515611e6f57611e6e8183612547565b5b505050565b600080611e80836126b2565b91507fffffffffffffffffffffffffffffffffffffffffffffffffffffffffffffffff82141515612011578190505b6001600260003373ffffffffffffffffffffffffffffffffffffffff1673ffffffffffffffffffffffffffffffffffffffff1681526020019081526020016000208054905003811015611fbd57600260003373ffffffffffffffffffffffffffffffffffffffff1673ffffffffffffffffffffffffffffffffffffffff16815260200190815260200160002060018201815481101515611f4b57fe5b9060005260206000200154600260003373ffffffffffffffffffffffffffffffffffffffff1673ffffffffffffffffffffffffffffffffffffffff16815260200190815260200160002082815481101515611fa257fe5b90600052602060002001819055508080600101915050611eaf565b600260003373ffffffffffffffffffffffffffffffffffffffff1673ffffffffffffffffffffffffffffffffffffffff16815260200190815260200160002080548091906001900361200f9190612a68565b505b505050565b6000816040518082805190602001908083835b60208310151561204e5780518252602082019150602081019050602083039250612029565b6001836020036101000a038019825116818451168082178552505050505050905001915050604051809103902060001916836040518082805190602001908083835b6020831015156120b55780518252602082019150602081019050602083039250612090565b6001836020036101000a03801982511681845116808217855250505050505090500191505060405180910390206000191614905092915050565b600080600090505b6000805490508110156122aa576121c660008281548110151561211657fe5b90600052602060002090600402016000018054600181600116156101000203166002900480601f0160208091040260200160405190810160405280929190818152602001828054600181600116156101000203166002900480156121bb5780601f10612190576101008083540402835291602001916121bb565b820191906000526020600020905b81548152906001019060200180831161219e57829003601f168201915b505050505085612016565b8015612290575061228f6000828154811015156121df57fe5b90600052602060002090600402016001018054600181600116156101000203166002900480601f0160208091040260200160405190810160405280929190818152602001828054600181600116156101000203166002900480156122845780601f1061225957610100808354040283529160200191612284565b820191906000526020600020905b81548152906001019060200180831161226757829003601f168201915b505050505084612016565b5b1561229d578091506122ce565b80806001019150506120f7565b7fffffffffffffffffffffffffffffffffffffffffffffffffffffffffffffffff91505b5092915050565b6000806122e284846127a1565b91507fffffffffffffffffffffffffffffffffffffffffffffffffffffffffffffffff82141515612451578190505b600160008581548110151561232257fe5b9060005260206000209060040201600201805490500381101561241c5760008481548110151561234e57fe5b90600052602060002090600402016002016001820181548110151561236f57fe5b9060005260206000200160009054906101000a900473ffffffffffffffffffffffffffffffffffffffff166000858154811015156123a957fe5b9060005260206000209060040201600201828154811015156123c757fe5b9060005260206000200160006101000a81548173ffffffffffffffffffffffffffffffffffffffff021916908373ffffffffffffffffffffffffffffffffffffffff1602179055508080600101915050612311565b60008481548110151561242b57fe5b906000526020600020906004020160020180548091906001900361244f9190612a94565b505b50505050565b600080600090505b600160008473ffffffffffffffffffffffffffffffffffffffff1673ffffffffffffffffffffffffffffffffffffffff1681526020019081526020016000208054905081101561251c5783600160008573ffffffffffffffffffffffffffffffffffffffff1673ffffffffffffffffffffffffffffffffffffffff168152602001908152602001600020828154811015156124f657fe5b9060005260206000200154141561250f57809150612540565b808060010191505061245f565b7fffffffffffffffffffffffffffffffffffffffffffffffffffffffffffffffff91505b5092915050565b60008290505b60018060008473ffffffffffffffffffffffffffffffffffffffff1673ffffffffffffffffffffffffffffffffffffffff168152602001908152602001600020805490500381101561265a57600160008373ffffffffffffffffffffffffffffffffffffffff1673ffffffffffffffffffffffffffffffffffffffff168152602001908152602001600020600182018154811015156125e857fe5b9060005260206000200154600160008473ffffffffffffffffffffffffffffffffffffffff1673ffffffffffffffffffffffffffffffffffffffff1681526020019081526020016000208281548110151561263f57fe5b9060005260206000200181905550808060010191505061254d565b600160008373ffffffffffffffffffffffffffffffffffffffff1673ffffffffffffffffffffffffffffffffffffffff1681526020019081526020016000208054809190600190036126ac9190612a68565b50505050565b600080600090505b600260003373ffffffffffffffffffffffffffffffffffffffff1673ffffffffffffffffffffffffffffffffffffffff1681526020019081526020016000208054905081101561277757600260003373ffffffffffffffffffffffffffffffffffffffff1673ffffffffffffffffffffffffffffffffffffffff1681526020019081526020016000208181548110151561275057fe5b906000526020600020015483141561276a5780915061279b565b80806001019150506126ba565b7fffffffffffffffffffffffffffffffffffffffffffffffffffffffffffffffff91505b50919050565b600080600090505b6000848154811015156127b857fe5b906000526020600020906004020160020180549050811015612874576000848154811015156127e357fe5b90600052602060002090600402016002018181548110151561280157fe5b9060005260206000200160009054906101000a900473ffffffffffffffffffffffffffffffffffffffff1673ffffffffffffffffffffffffffffffffffffffff168373ffffffffffffffffffffffffffffffffffffffff16141561286757809150612898565b80806001019150506127a9565b7fffffffffffffffffffffffffffffffffffffffffffffffffffffffffffffffff91505b5092915050565b828054600181600116156101000203166002900490600052602060002090601f016020900481019282601f106128e057805160ff191683800117855561290e565b8280016001018555821561290e579182015b8281111561290d5782518255916020019190600101906128f2565b5b50905061291b9190612ac0565b5090565b608060405190810160405280606081526020016060815260200160608152602001600073ffffffffffffffffffffffffffffffffffffffff1681525090565b828054600181600116156101000203166002900490600052602060002090601f016020900481019282601f1061299f57805160ff19168380011785556129cd565b828001600101855582156129cd579182015b828111156129cc5782518255916020019190600101906129b1565b5b5090506129da9190612ac0565b5090565b828054828255906000526020600020908101928215612a57579160200282015b82811115612a565782518260006101000a81548173ffffffffffffffffffffffffffffffffffffffff021916908373ffffffffffffffffffffffffffffffffffffffff160217905550916020019190600101906129fe565b5b509050612a649190612ae5565b5090565b815481835581811115612a8f57818360005260206000209182019101612a8e9190612ac0565b5b505050565b815481835581811115612abb57818360005260206000209182019101612aba9190612ac0565b5b505050565b612ae291905b80821115612ade576000816000905550600101612ac6565b5090565b90565b612b2591905b80821115612b2157600081816101000a81549073ffffffffffffffffffffffffffffffffffffffff021916905550600101612aeb565b5090565b90565b6000612b348235613171565b905092915050565b600082601f8301121515612b4f57600080fd5b8135612b62612b5d826130bb565b61308e565b91508082526020830160208301858383011115612b7e57600080fd5b612b8983828461319b565b50505092915050565b6000612b9e8235613191565b905092915050565b600060208284031215612bb857600080fd5b6000612bc684828501612b28565b91505092915050565b60008060408385031215612be257600080fd5b6000612bf085828601612b28565b9250506020612c0185828601612b92565b9150509250929050565b600060208284031215612c1d57600080fd5b600082013567ffffffffffffffff811115612c3757600080fd5b612c4384828501612b3c565b91505092915050565b60008060408385031215612c5f57600080fd5b600083013567ffffffffffffffff811115612c7957600080fd5b612c8585828601612b3c565b925050602083013567ffffffffffffffff811115612ca257600080fd5b612cae85828601612b3c565b9150509250929050565b600060208284031215612cca57600080fd5b6000612cd884828501612b92565b91505092915050565b60008060408385031215612cf457600080fd5b6000612d0285828601612b92565b9250506020612d1385828601612b28565b9150509250929050565b600080600060608486031215612d3257600080fd5b6000612d4086828701612b92565b9350506020612d5186828701612b28565b925050604084013567ffffffffffffffff811115612d6e57600080fd5b612d7a86828701612b3c565b9150509250925092565b60008060408385031215612d9757600080fd5b6000612da585828601612b92565b925050602083013567ffffffffffffffff811115612dc257600080fd5b612dce85828601612b3c565b9150509250929050565b612de181613147565b82525050565b6000612df282613101565b808452602084019350612e04836130e7565b60005b82811015612e3657612e1a868351612dd8565b612e238261312d565b9150602086019550600181019050612e07565b50849250505092915050565b6000612e4d8261310c565b808452602084019350612e5f836130f4565b60005b82811015612e9157612e75868351612f40565b612e7e8261313a565b9150602086019550600181019050612e62565b50849250505092915050565b6000612ea882613122565b808452612ebc8160208601602086016131aa565b612ec5816131dd565b602085010191505092915050565b6000612ede82613117565b808452612ef28160208601602086016131aa565b612efb816131dd565b602085010191505092915050565b6000601b82527f736f727279212069742773206e6f7420796f75722073686172652100000000006020830152604082019050919050565b612f4981613167565b82525050565b60006020820190508181036000830152612f698184612de7565b905092915050565b60006020820190508181036000830152612f8b8184612e42565b905092915050565b60006020820190508181036000830152612fad8184612ed3565b905092915050565b60006020820190508181036000830152612fcf8184612e9d565b905092915050565b60006040820190508181036000830152612ff18185612e9d565b905081810360208301526130058184612e9d565b90509392505050565b600060608201905081810360008301526130288186612ed3565b9050818103602083015261303c8185612ed3565b905061304b6040830184612dd8565b949350505050565b6000602082019050818103600083015261306c81612f09565b9050919050565b60006020820190506130886000830184612f40565b92915050565b6000604051905081810181811067ffffffffffffffff821117156130b157600080fd5b8060405250919050565b600067ffffffffffffffff8211156130d257600080fd5b601f19601f8301169050602081019050919050565b6000602082019050919050565b6000602082019050919050565b600081519050919050565b600081519050919050565b600081519050919050565b600081519050919050565b6000602082019050919050565b6000602082019050919050565b600073ffffffffffffffffffffffffffffffffffffffff82169050919050565b6000819050919050565b600073ffffffffffffffffffffffffffffffffffffffff82169050919050565b6000819050919050565b82818337600083830152505050565b60005b838110156131c85780820151818401526020810190506131ad565b838111156131d7576000848401525b50505050565b6000601f19601f83011690509190505600a265627a7a723058201ee98f9e8c8be6ff917ac44305d693c6b8b54595ee96726e3167fa7b5af31ee26c6578706572696d656e74616cf50037",
  "source": "pragma solidity ^0.4.24;\npragma experimental ABIEncoderV2;\n\ncontract Mapping {\n    event UpdateShare(\n        string _oldHash,\n        string _newHash\n    );\n\n    event RemoveShare(\n        string _hash\n    );\n\n    event CreateShare(\n        string _hash\n    );\n\n    event CreatePublicKey(\n        string _pubKey\n    );\n    \n    struct Share {\n        string hash;\n        string name;\n        address[] receivers;\n        address owner;\n    }\n\n    Share[] public shares;\n    mapping(address => uint[]) public receivers;\n    mapping(address => uint[]) public senders;\n\n    // RSA-pubkey-hashstore\n    mapping(address => string) public rsaHashStore;\n\n    // ////////////////////////////\n    // public functions\n    // ////////////////////////////\n\n    // returns the index of the created share\n    function createShare(string newHash, string newName) public returns (uint) {\n        uint index = shareExists(newHash, newName);\n        if (index != uint(-1)) {\n            return index;\n        }\n        address[] memory noReceivers;\n        Share memory newShare = Share({\n            hash: newHash,\n            name: newName,\n            receivers: noReceivers,\n            owner: msg.sender\n        });\n        index = shares.push(newShare) - 1;\n        senders[msg.sender].push(index);\n        emit CreateShare(newHash);\n        return index;\n    }\n\n    function getShareHash(uint index) public view returns (string) {\n        return shares[index].hash;\n    }\n\n    function getHashForUint(uint index) public view returns (string) {\n        return shares[index].hash;\n    }\n\n    function getShareName(uint index) public view returns (string) {\n        return shares[index].name;\n    }\n\n    function getNameForUint(uint index) public view returns (string) {\n        return shares[index].name;\n    }\n\n    function getShareReceivers(uint index) public view returns (address[]) {\n        return shares[index].receivers;\n    }\n\n    // returns shares I got\n    function getReceivedShares() public view returns(uint[]) {\n        return receivers[msg.sender];\n    }\n    // returns shares I created\n    function getSentShares() public view returns(uint[]) {\n        return senders[msg.sender];\n    }\n\n    // adds a new receiver to share and updates hash\n    function addToShareAndUpdateHash(uint index, address receiver, string newHash) public {\n        revertIfNotMyShare(index);\n        addToShare(index, receiver);\n        string memory oldHash = shares[index].hash;\n        shares[index].hash = newHash;\n        emit UpdateShare(oldHash, newHash);\n    }\n\n    // adds a new receiver to share\n    function addToShare(uint index, address receiver) public {\n        revertIfNotMyShare(index);\n\n        if (!hasAlreadyReceived(index, receiver)) {\n            shares[index].receivers.push(receiver);\n            receivers[receiver].push(index);\n        }\n    }\n\n    // remove share\n    function removeShare(uint index) public {\n        revertIfNotMyShare(index);\n        string memory removedHash = shares[index].hash;\n        // remove share from all receivers mapping\n        for (uint i = 0; i < shares[index].receivers.length; i++) {\n            removeFromReceiversMapping(index, shares[index].receivers[i]);\n        }\n        // remove share from senders share list\n        removeShareFromSender(index);\n        // remove the share\n        address[] memory noReceivers;\n        Share memory emptyShare = Share({\n            hash: \"\",\n            name: \"\",\n            receivers: noReceivers,\n            owner: address(0)\n        });\n        shares[index] = emptyShare;\n        emit RemoveShare(removedHash);\n    }\n\n    // revoke rights for receicer and update ipfs hash\n    function revokeShareAndUpdateHash(uint index, address receiver, string newHash) public {\n        revertIfNotMyShare(index);\n        removeFromReceivers(index, receiver);\n        string memory oldHash = shares[index].hash;\n        shares[index].hash = newHash;\n        emit UpdateShare(oldHash, newHash);\n    }\n\n    // updates ipfs hash of a share\n    function updateHash(uint index, string newHash) public {\n        revertIfNotMyShare(index);\n        string memory oldHash = shares[index].hash;\n        shares[index].hash = newHash;\n        emit UpdateShare(oldHash, newHash);\n    }\n\n    // updates name of a share\n    function updateName(uint index, string newName) public {\n        revertIfNotMyShare(index);\n        shares[index].name = newName;\n    }\n\n    function getIndexFor(string hash, string name) public view returns (uint) {\n        for (uint i = 0; i < senders[msg.sender].length; i++) {\n            if (isEqual(shares[i].hash, hash) && isEqual(shares[i].name, name)) {\n                return i;\n            }\n        }\n        return uint(-1);\n    }\n\n    // RSA pub key operations\n\n    function setPubKeyHash(string pubkey) public {\n        rsaHashStore[msg.sender] = pubkey;\n        emit CreatePublicKey(pubkey);\n    }\n    function getPubKeyHashFor(address adr) public view returns (string) {\n        return rsaHashStore[adr];\n    } \n    function getPubKeyHash() public view returns (string) {\n        return rsaHashStore[msg.sender];\n    }\n\n    function getReceivedSharesFor(address a) public view returns (uint[]) {\n        return receivers[a];\n    }\n\n    // ////////////////////////////\n    // private functions\n    // ////////////////////////////\n\n    // removes a receiver from a share\n    function removeFromReceivers(uint index, address receiver) private {\n        removeFromReceiversMapping(index, receiver);\n        removeFromSharesList(index, receiver);\n    }\n\n    // checks if receiver aleardy received share\n    function hasAlreadyReceived(uint index, address receiver) private view returns (bool) {\n        uint[] storage received = receivers[receiver];\n        for (uint j = 0; j < received.length; j++) {\n            if (received[j] == index) {\n                return true;\n            }\n        }\n        return false;\n    }\n\n    function getShareIndexForSenderMapping(uint index) private view returns (uint) {\n        for (uint i = 0; i < senders[msg.sender].length; i++) {\n            if (index == senders[msg.sender][i]) {\n                return i;\n            }\n        }\n        return uint(-1);\n    }\n\n    function removeShareFromSender(uint index) private {\n        uint indexOfShare = getShareIndexForSenderMapping(index);\n        if (indexOfShare != uint(-1)) {\n            for (uint i = indexOfShare; i < senders[msg.sender].length-1; i++) {\n                senders[msg.sender][i] = senders[msg.sender][i+1];\n            }\n            senders[msg.sender].length--;\n        }\n    }\n\n    // removes a receiver from receivers mapping\n    function removeFromReceiversMapping(uint index, address receiver) private {\n        uint indexOfShare = getIndexOfShareForReceiversMapping(index, receiver);\n        if (indexOfShare != uint(-1)) {\n            removeShareIndexFromReceiversMapping(indexOfShare, receiver);\n        }\n    }\n\n    function getIndexOfShareForReceiversMapping(uint index, address receiver) private view returns (uint) {\n        for (uint i = 0; i < receivers[receiver].length; i++) {\n            if (receivers[receiver][i] == index) {\n                return i;\n            }\n        }\n        return uint(-1);\n    }\n\n    function removeShareIndexFromReceiversMapping(uint index, address receiver) private {\n        for (uint i = index; i < receivers[receiver].length-1; i++) {\n            receivers[receiver][i] = receivers[receiver][i+1];\n        }\n        receivers[receiver].length--;\n    }\n\n    // removes a receiver from share list\n    function removeFromSharesList(uint index, address receiver) private {\n        uint indexForReceiverAddress = getIndexForReceiverAddress(index, receiver);\n        if (indexForReceiverAddress != uint(-1)) {\n            for (uint i = indexForReceiverAddress; i < shares[index].receivers.length-1; i++) {\n                shares[index].receivers[i] = shares[index].receivers[i+1];\n            }\n            shares[index].receivers.length--;\n        }\n    }\n\n    // returns index of share receiver\n    function getIndexForReceiverAddress(uint index, address receiver) private view returns (uint) {\n        for (uint i = 0; i < shares[index].receivers.length; i++) {\n            if (receiver == shares[index].receivers[i]) {\n                return i;\n            }\n        }\n        return uint(-1);\n    }\n\n    // checks if share with hash and name already exists\n    function shareExists(string hash, string name) private view returns (uint) {\n        for (uint i = 0; i < shares.length; i++) {\n            if (isEqual(shares[i].hash, hash) && isEqual(shares[i].name, name)) {\n                return i;\n            }\n        }\n        return uint(-1);\n    }\n\n    // checks if both strings are equal\n    function isEqual(string a, string b) private pure returns (bool) {\n        return keccak256(bytes(a)) == keccak256(bytes(b));\n    }\n\n    // check if share for given index is owned by msg.sender\n    function revertIfNotMyShare(uint index) private view {\n        uint[] memory sent = senders[msg.sender];\n        bool myShare = false;\n        for (uint i = 0; i < sent.length; i++) {\n            if (sent[i] == index) {\n                myShare = true;\n                break;\n            }\n        }\n        if (!myShare) {\n            revert(\"sorry! it's not your share!\");\n        }\n    }\n\n    // ///////////////////////////////////////\n\n    // string[] public hashes;\n    // string[] public names;\n    // mapping(uint => address[]) public sharedTo;\n    \n\n    // // RSA-pubkey-hashstore\n    // mapping(address => string) public rsaHashStore;\n\n    // function setPubKeyHash(string pubkey) public {\n    //     // string current = rsaHashStore[msg.sender];\n    //     // bytes memory asBytes = bytes(current);\n    //     // if (asBytes.length != 0){\n    //     //     revert();\n    //     // }\n    //     rsaHashStore[msg.sender] = pubkey; \n    // }\n    // function getPubKeyHashFor(address adr) public view returns(string){\n    //     return rsaHashStore[adr];\n    // } \n    // function getPubKeyHash() public view returns(string){\n    //     return rsaHashStore[msg.sender];\n    // }\n\n    // function getHashForUint(uint i) public view returns(string){\n    //     return hashes[i];\n    // }\n    // function getNameForUint(uint i) public view returns(string){\n    //     return names[i];\n    // }\n\n    // function getReceivedSharesFor(address a) public view returns(uint[]){\n    //     return receivers[a];\n    // }\n    // // TODO: this is bricked :( do we need it anyway?\n    // function getIndexFor(string hash, string name) public view returns (uint){\n    //     uint[] memory myIndexes = senders[msg.sender];\n    //     uint theHash = 0;\n    //     bool found = false;\n\n    //     for (uint i = 0; i < myIndexes.length; i++){\n    //         string memory currentHash = hashes[myIndexes[i]];\n    //         if (keccak256(hash) == keccak256(currentHash)){\n    //             if (keccak256(names[i]) == keccak256(name)){\n    //                 found = true;\n    //                 theHash = myIndexes[i];\n    //                 break;\n    //             }\n    //         }\n    //     }\n    //     if (found){\n    //         return theHash;\n    //     }else{\n    //         revert(\"No index found for hash/name combination\");\n    //     }\n    // }\n\n    \n\n    // function createShare(string ipfsHash, string name) public returns(uint index){\n    //     uint hashIndex = 0;\n    //     bool existingShare = false;\n\n    //     // existiert der share ueberhaupt?\n    //     for (uint i = 0; i < hashes.length; i++){\n    //         if (keccak256(ipfsHash) == keccak256(hashes[i])){\n    //             // check if corresponding name for existing hash is the same\n    //             if (keccak256(names[i]) == keccak256(name)){\n    //                 existingShare = true;\n    //                 hashIndex = i;\n    //                 break;\n    //             }\n\n    //         }\n    //     }\n    //     if (existingShare == false){\n    //         hashIndex = hashes.push(ipfsHash) - 1;\n    //         names.push(name);\n    //     }\n\n    //     // existiert der sender\n    //     uint[] memory sent = senders[msg.sender];\n    //     existingShare = false;\n    //     for (uint j = 0; j < sent.length; j++){\n    //         if (sent[j] == hashIndex){\n    //             existingShare = true;\n    //             break;\n    //         }\n    //     }\n    //     if (existingShare == false){\n    //         senders[msg.sender].push(hashIndex);\n    //     }\n\n    //     return hashIndex;\n    // }\n\n\n    // function isMine(uint index) view private {\n    //     uint[] memory sent = senders[msg.sender];\n    //     bool meins = false;\n    //     for (uint i = 0; i < sent.length; i++){\n    //         if (sent[i] == index){\n    //             meins = true;\n    //             break;\n    //         }\n    //     }\n    //     if (!meins){\n    //         revert(\"sorry! it's not your share!\");\n    //     }\n    // }\n\n    \n\n    \n\n    // function removeHash(uint index) private {\n    //     for (uint i = index; i < hashes.length-1; i++){\n    //         hashes[i] = hashes[i+1];\n    //     }\n    //     hashes.length--;\n    // }\n\n    // function removeName(uint index) private {\n    //     for (uint i = index; i < names.length-1; i++){\n    //         names[i] = names[i+1];\n    //     }\n    //     names.length--;\n    // }\n\n    // function removeFromStringArray(uint index, string[] storage array) internal returns(string[]){\n    //     for (uint i = index; i < array.length-1; i++){\n    //         array[i] = array[i+1];\n    //     }\n    //     array.length--;\n    //     return array;\n    // }\n    // function removeFromUintArray(uint index, uint[] storage array) internal returns(uint[]){\n    //     for (uint i = index; i < array.length-1; i++){\n    //         array[i] = array[i+1];\n    //     }\n    //     array.length--;\n    //     return array;\n    // }\n    // function removeFromAddressArray(uint index, address[] storage array) internal returns(address[]){\n    //     for (uint i = index; i < array.length-1; i++){\n    //         array[i] = array[i+1];\n    //     }\n    //     array.length--;\n    //     return array;\n    // }\n\n    // function removeValueFromUintArray(uint value, uint[] storage array) internal returns(uint[]) {\n    //     for (uint i = 0; i < array.length-1; i++) {\n    //         if (array[i] == value) {\n    //             return removeFromUintArray(i, array); \n    //         }\n    //     }\n    //     return array;\n    // }\n\n    \n    // function updateHashInternal(uint index, string newIpfsHash) internal {\n    //     hashes[index] = newIpfsHash;\n    // }\n    \n}",
  "sourcePath": "/home/collin/Documents/ersteWelle/sharu/sharu-contract/contracts/Mapping.sol",
  "compiler": {
    "name": "solc",
    "version": "0.4.24+commit.e67f0147.Emscripten.clang"
  },
  "schemaVersion": "2.0.1",
  "updatedAt": "2018-11-04T15:11:07.022Z"
}