{
  "contractName": "Shares",
  "abi": [
    {
      "constant": true,
      "inputs": [
        {
          "name": "",
          "type": "uint256"
        }
      ],
      "name": "shareToHashes",
      "outputs": [
        {
          "name": "",
          "type": "string"
        }
      ],
      "payable": false,
      "stateMutability": "view",
      "type": "function"
    },
    {
      "constant": true,
      "inputs": [
        {
          "name": "",
          "type": "uint256"
        },
        {
          "name": "",
          "type": "uint256"
        }
      ],
      "name": "sharesToAuthors",
      "outputs": [
        {
          "name": "",
          "type": "address"
        }
      ],
      "payable": false,
      "stateMutability": "view",
      "type": "function"
    },
    {
      "constant": true,
      "inputs": [
        {
          "name": "",
          "type": "address"
        },
        {
          "name": "",
          "type": "uint256"
        }
      ],
      "name": "ownerToShares",
      "outputs": [
        {
          "name": "",
          "type": "uint256"
        }
      ],
      "payable": false,
      "stateMutability": "view",
      "type": "function"
    },
    {
      "anonymous": false,
      "inputs": [
        {
          "indexed": false,
          "name": "_pointer",
          "type": "uint256"
        },
        {
          "indexed": false,
          "name": "_oldHash",
          "type": "string"
        },
        {
          "indexed": false,
          "name": "_newHash",
          "type": "string"
        },
        {
          "indexed": false,
          "name": "_updater",
          "type": "address"
        }
      ],
      "name": "Updated",
      "type": "event"
    },
    {
      "anonymous": false,
      "inputs": [
        {
          "indexed": false,
          "name": "_pointer",
          "type": "uint256"
        },
        {
          "indexed": false,
          "name": "_deleter",
          "type": "address"
        }
      ],
      "name": "Deleted",
      "type": "event"
    },
    {
      "anonymous": false,
      "inputs": [
        {
          "indexed": false,
          "name": "_pointer",
          "type": "uint256"
        },
        {
          "indexed": false,
          "name": "_newAuthor",
          "type": "address"
        },
        {
          "indexed": false,
          "name": "_owner",
          "type": "address"
        }
      ],
      "name": "AuthorAdded",
      "type": "event"
    },
    {
      "anonymous": false,
      "inputs": [
        {
          "indexed": false,
          "name": "_pointer",
          "type": "uint256"
        },
        {
          "indexed": false,
          "name": "_removedAuthor",
          "type": "address"
        },
        {
          "indexed": false,
          "name": "_owner",
          "type": "address"
        }
      ],
      "name": "AuthorDeleted",
      "type": "event"
    },
    {
      "anonymous": false,
      "inputs": [
        {
          "indexed": false,
          "name": "_pointer",
          "type": "uint256"
        },
        {
          "indexed": false,
          "name": "_receiver",
          "type": "address"
        },
        {
          "indexed": false,
          "name": "_sender",
          "type": "address"
        }
      ],
      "name": "NewInvite",
      "type": "event"
    },
    {
      "constant": false,
      "inputs": [
        {
          "name": "newHash",
          "type": "string"
        }
      ],
      "name": "createShare",
      "outputs": [
        {
          "name": "",
          "type": "uint256"
        }
      ],
      "payable": false,
      "stateMutability": "nonpayable",
      "type": "function"
    },
    {
      "constant": false,
      "inputs": [
        {
          "name": "pointer",
          "type": "uint256"
        }
      ],
      "name": "removeShare",
      "outputs": [],
      "payable": false,
      "stateMutability": "nonpayable",
      "type": "function"
    },
    {
      "constant": false,
      "inputs": [
        {
          "name": "pointer",
          "type": "uint256"
        },
        {
          "name": "clientOldHash",
          "type": "string"
        },
        {
          "name": "newHash",
          "type": "string"
        }
      ],
      "name": "updateHash",
      "outputs": [],
      "payable": false,
      "stateMutability": "nonpayable",
      "type": "function"
    },
    {
      "constant": false,
      "inputs": [
        {
          "name": "pointer",
          "type": "uint256"
        },
        {
          "name": "newAuthor",
          "type": "address"
        }
      ],
      "name": "addAuthor",
      "outputs": [],
      "payable": false,
      "stateMutability": "nonpayable",
      "type": "function"
    },
    {
      "constant": false,
      "inputs": [
        {
          "name": "pointer",
          "type": "uint256"
        },
        {
          "name": "author",
          "type": "address"
        }
      ],
      "name": "removeAuthor",
      "outputs": [],
      "payable": false,
      "stateMutability": "nonpayable",
      "type": "function"
    },
    {
      "constant": true,
      "inputs": [
        {
          "name": "pointer",
          "type": "uint256"
        }
      ],
      "name": "getAuthorsForShare",
      "outputs": [
        {
          "name": "",
          "type": "address[]"
        }
      ],
      "payable": false,
      "stateMutability": "view",
      "type": "function"
    },
    {
      "constant": true,
      "inputs": [],
      "name": "getMySharePointers",
      "outputs": [
        {
          "name": "",
          "type": "uint256[]"
        }
      ],
      "payable": false,
      "stateMutability": "view",
      "type": "function"
    },
    {
      "constant": true,
      "inputs": [
        {
          "name": "pointer",
          "type": "uint256"
        }
      ],
      "name": "getHash",
      "outputs": [
        {
          "name": "hash1",
          "type": "string"
        }
      ],
      "payable": false,
      "stateMutability": "view",
      "type": "function"
    },
    {
      "constant": true,
      "inputs": [
        {
          "name": "pointer1",
          "type": "uint256"
        },
        {
          "name": "pointer2",
          "type": "uint256"
        }
      ],
      "name": "getHashForTwo",
      "outputs": [
        {
          "name": "hash1",
          "type": "string"
        },
        {
          "name": "hash2",
          "type": "string"
        }
      ],
      "payable": false,
      "stateMutability": "view",
      "type": "function"
    },
    {
      "constant": true,
      "inputs": [
        {
          "name": "pointer1",
          "type": "uint256"
        },
        {
          "name": "pointer2",
          "type": "uint256"
        },
        {
          "name": "pointer3",
          "type": "uint256"
        }
      ],
      "name": "getHashForThree",
      "outputs": [
        {
          "name": "hash1",
          "type": "string"
        },
        {
          "name": "hash2",
          "type": "string"
        },
        {
          "name": "hash3",
          "type": "string"
        }
      ],
      "payable": false,
      "stateMutability": "view",
      "type": "function"
    },
    {
      "constant": true,
      "inputs": [
        {
          "name": "pointer1",
          "type": "uint256"
        },
        {
          "name": "pointer2",
          "type": "uint256"
        },
        {
          "name": "pointer3",
          "type": "uint256"
        },
        {
          "name": "pointer4",
          "type": "uint256"
        }
      ],
      "name": "getHashForFour",
      "outputs": [
        {
          "name": "hash1",
          "type": "string"
        },
        {
          "name": "hash2",
          "type": "string"
        },
        {
          "name": "hash3",
          "type": "string"
        },
        {
          "name": "hash4",
          "type": "string"
        }
      ],
      "payable": false,
      "stateMutability": "view",
      "type": "function"
    },
    {
      "constant": true,
      "inputs": [
        {
          "name": "pointer1",
          "type": "uint256"
        },
        {
          "name": "pointer2",
          "type": "uint256"
        },
        {
          "name": "pointer3",
          "type": "uint256"
        },
        {
          "name": "pointer4",
          "type": "uint256"
        },
        {
          "name": "pointer5",
          "type": "uint256"
        }
      ],
      "name": "getHashForFive",
      "outputs": [
        {
          "name": "hash1",
          "type": "string"
        },
        {
          "name": "hash2",
          "type": "string"
        },
        {
          "name": "hash3",
          "type": "string"
        },
        {
          "name": "hash4",
          "type": "string"
        },
        {
          "name": "hash5",
          "type": "string"
        }
      ],
      "payable": false,
      "stateMutability": "view",
      "type": "function"
    },
    {
      "constant": true,
      "inputs": [
        {
          "name": "pointer1",
          "type": "uint256"
        },
        {
          "name": "pointer2",
          "type": "uint256"
        },
        {
          "name": "pointer3",
          "type": "uint256"
        },
        {
          "name": "pointer4",
          "type": "uint256"
        },
        {
          "name": "pointer5",
          "type": "uint256"
        },
        {
          "name": "pointer6",
          "type": "uint256"
        }
      ],
      "name": "getHashForSix",
      "outputs": [
        {
          "name": "hash1",
          "type": "string"
        },
        {
          "name": "hash2",
          "type": "string"
        },
        {
          "name": "hash3",
          "type": "string"
        },
        {
          "name": "hash4",
          "type": "string"
        },
        {
          "name": "hash5",
          "type": "string"
        },
        {
          "name": "hash6",
          "type": "string"
        }
      ],
      "payable": false,
      "stateMutability": "view",
      "type": "function"
    },
    {
      "constant": true,
      "inputs": [
        {
          "name": "pointer",
          "type": "uint256"
        }
      ],
      "name": "revertIfNotMine",
      "outputs": [
        {
          "name": "",
          "type": "uint256"
        }
      ],
      "payable": false,
      "stateMutability": "view",
      "type": "function"
    },
    {
      "constant": true,
      "inputs": [
        {
          "name": "pointer",
          "type": "uint256"
        }
      ],
      "name": "revertIfNotAllowed",
      "outputs": [],
      "payable": false,
      "stateMutability": "view",
      "type": "function"
    },
    {
      "constant": true,
      "inputs": [],
      "name": "getShareCount",
      "outputs": [
        {
          "name": "",
          "type": "uint256"
        }
      ],
      "payable": false,
      "stateMutability": "view",
      "type": "function"
    },
    {
      "constant": false,
      "inputs": [
        {
          "name": "pointer",
          "type": "uint256"
        },
        {
          "name": "receiver",
          "type": "address"
        }
      ],
      "name": "invite",
      "outputs": [],
      "payable": false,
      "stateMutability": "nonpayable",
      "type": "function"
    },
    {
      "constant": true,
      "inputs": [
        {
          "name": "receiver",
          "type": "address"
        }
      ],
      "name": "getInvitesFor",
      "outputs": [
        {
          "name": "",
          "type": "uint256[]"
        }
      ],
      "payable": false,
      "stateMutability": "view",
      "type": "function"
    },
    {
      "constant": true,
      "inputs": [],
      "name": "getMyInvites",
      "outputs": [
        {
          "name": "",
          "type": "uint256[]"
        }
      ],
      "payable": false,
      "stateMutability": "view",
      "type": "function"
    },
    {
      "constant": true,
      "inputs": [
        {
          "name": "a",
          "type": "string"
        },
        {
          "name": "b",
          "type": "string"
        }
      ],
      "name": "equals",
      "outputs": [
        {
          "name": "",
          "type": "bool"
        }
      ],
      "payable": false,
      "stateMutability": "pure",
      "type": "function"
    }
  ],
  "bytecode": "0x608060405234801561001057600080fd5b50613c16806100206000396000f300608060405260043610610133576000357c0100000000000000000000000000000000000000000000000000000000900463ffffffff1680631615642c146101385780631c0b915b146101f1578063266304731461021c5780632e3de7a5146102c2578063339bf88c1461033f5780633b392ba7146103ab5780633edac5a7146104c75780633f1e09e8146104f4578063548e27e4146105355780635973c446146105a15780636b2fafa9146106185780636be3b544146106be5780636c8cde431461070b5780637ae690231461098957806383fde473146109d657806388d8da5f14610a585780638f406c5114610b1f57806392c2287014610b80578063a900d1f514610e74578063c4ebe61e14610ec1578063d4a773cb14610f59578063db6081d3146110eb578063eb9546b2146112f3575b600080fd5b34801561014457600080fd5b506101ef60048036038101908080359060200190929190803590602001908201803590602001908080601f0160208091040260200160405190810160405280939291908181526020018383808284378201915050505050509192919290803590602001908201803590602001908080601f0160208091040260200160405190810160405280939291908181526020018383808284378201915050505050509192919290505050611320565b005b3480156101fd57600080fd5b506102066115fc565b6040518082815260200191505060405180910390f35b34801561022857600080fd5b5061024760048036038101908080359060200190929190505050611608565b6040518080602001828103825283818151815260200191508051906020019080838360005b8381101561028757808201518184015260208101905061026c565b50505050905090810190601f1680156102b45780820380516001836020036101000a031916815260200191505b509250505060405180910390f35b3480156102ce57600080fd5b50610329600480360381019080803590602001908201803590602001908080601f01602080910402602001604051908101604052809392919081815260200183838082843782019150505050505091929192905050506116c3565b6040518082815260200191505060405180910390f35b34801561034b57600080fd5b50610354611867565b6040518080602001828103825283818151815260200191508051906020019060200280838360005b8381101561039757808201518184015260208101905061037c565b505050509050019250505060405180910390f35b3480156103b757600080fd5b506103e060048036038101908080359060200190929190803590602001909291905050506118fc565b604051808060200180602001838103835285818151815260200191508051906020019080838360005b83811015610424578082015181840152602081019050610409565b50505050905090810190601f1680156104515780820380516001836020036101000a031916815260200191505b50838103825284818151815260200191508051906020019080838360005b8381101561048a57808201518184015260208101905061046f565b50505050905090810190601f1680156104b75780820380516001836020036101000a031916815260200191505b5094505050505060405180910390f35b3480156104d357600080fd5b506104f260048036038101908080359060200190929190505050611a74565b005b34801561050057600080fd5b5061051f60048036038101908080359060200190929190505050611e25565b6040518082815260200191505060405180910390f35b34801561054157600080fd5b5061054a611f98565b6040518080602001828103825283818151815260200191508051906020019060200280838360005b8381101561058d578082015181840152602081019050610572565b505050509050019250505060405180910390f35b3480156105ad57600080fd5b506105d6600480360381019080803590602001909291908035906020019092919050505061202d565b604051808273ffffffffffffffffffffffffffffffffffffffff1673ffffffffffffffffffffffffffffffffffffffff16815260200191505060405180910390f35b34801561062457600080fd5b506106436004803603810190808035906020019092919050505061207a565b6040518080602001828103825283818151815260200191508051906020019080838360005b83811015610683578082015181840152602081019050610668565b50505050905090810190601f1680156106b05780820380516001836020036101000a031916815260200191505b509250505060405180910390f35b3480156106ca57600080fd5b5061070960048036038101908080359060200190929190803573ffffffffffffffffffffffffffffffffffffffff169060200190929190505050612135565b005b34801561071757600080fd5b5061075e6004803603810190808035906020019092919080359060200190929190803590602001909291908035906020019092919080359060200190929190505050612408565b60405180806020018060200180602001806020018060200186810386528b818151815260200191508051906020019080838360005b838110156107ae578082015181840152602081019050610793565b50505050905090810190601f1680156107db5780820380516001836020036101000a031916815260200191505b5086810385528a818151815260200191508051906020019080838360005b838110156108145780820151818401526020810190506107f9565b50505050905090810190601f1680156108415780820380516001836020036101000a031916815260200191505b50868103845289818151815260200191508051906020019080838360005b8381101561087a57808201518184015260208101905061085f565b50505050905090810190601f1680156108a75780820380516001836020036101000a031916815260200191505b50868103835288818151815260200191508051906020019080838360005b838110156108e05780820151818401526020810190506108c5565b50505050905090810190601f16801561090d5780820380516001836020036101000a031916815260200191505b50868103825287818151815260200191508051906020019080838360005b8381101561094657808201518184015260208101905061092b565b50505050905090810190601f1680156109735780820380516001836020036101000a031916815260200191505b509a505050505050505050505060405180910390f35b34801561099557600080fd5b506109d460048036038101908080359060200190929190803573ffffffffffffffffffffffffffffffffffffffff1690602001909291905050506127b0565b005b3480156109e257600080fd5b50610a01600480360381019080803590602001909291905050506128c5565b6040518080602001828103825283818151815260200191508051906020019060200280838360005b83811015610a44578082015181840152602081019050610a29565b505050509050019250505060405180910390f35b348015610a6457600080fd5b50610b05600480360381019080803590602001908201803590602001908080601f0160208091040260200160405190810160405280939291908181526020018383808284378201915050505050509192919290803590602001908201803590602001908080601f0160208091040260200160405190810160405280939291908181526020018383808284378201915050505050509192919290505050612966565b604051808215151515815260200191505060405180910390f35b348015610b2b57600080fd5b50610b6a600480360381019080803573ffffffffffffffffffffffffffffffffffffffff16906020019092919080359060200190929190505050612a3f565b6040518082815260200191505060405180910390f35b348015610b8c57600080fd5b50610bdd600480360381019080803590602001909291908035906020019092919080359060200190929190803590602001909291908035906020019092919080359060200190929190505050612a6f565b6040518080602001806020018060200180602001806020018060200187810387528d818151815260200191508051906020019080838360005b83811015610c31578082015181840152602081019050610c16565b50505050905090810190601f168015610c5e5780820380516001836020036101000a031916815260200191505b5087810386528c818151815260200191508051906020019080838360005b83811015610c97578082015181840152602081019050610c7c565b50505050905090810190601f168015610cc45780820380516001836020036101000a031916815260200191505b5087810385528b818151815260200191508051906020019080838360005b83811015610cfd578082015181840152602081019050610ce2565b50505050905090810190601f168015610d2a5780820380516001836020036101000a031916815260200191505b5087810384528a818151815260200191508051906020019080838360005b83811015610d63578082015181840152602081019050610d48565b50505050905090810190601f168015610d905780820380516001836020036101000a031916815260200191505b50878103835289818151815260200191508051906020019080838360005b83811015610dc9578082015181840152602081019050610dae565b50505050905090810190601f168015610df65780820380516001836020036101000a031916815260200191505b50878103825288818151815260200191508051906020019080838360005b83811015610e2f578082015181840152602081019050610e14565b50505050905090810190601f168015610e5c5780820380516001836020036101000a031916815260200191505b509c5050505050505050505050505060405180910390f35b348015610e8057600080fd5b50610ebf60048036038101908080359060200190929190803573ffffffffffffffffffffffffffffffffffffffff169060200190929190505050612ed1565b005b348015610ecd57600080fd5b50610f02600480360381019080803573ffffffffffffffffffffffffffffffffffffffff16906020019092919050505061309e565b6040518080602001828103825283818151815260200191508051906020019060200280838360005b83811015610f45578082015181840152602081019050610f2a565b505050509050019250505060405180910390f35b348015610f6557600080fd5b50610f98600480360381019080803590602001909291908035906020019092919080359060200190929190505050613135565b60405180806020018060200180602001848103845287818151815260200191508051906020019080838360005b83811015610fe0578082015181840152602081019050610fc5565b50505050905090810190601f16801561100d5780820380516001836020036101000a031916815260200191505b50848103835286818151815260200191508051906020019080838360005b8381101561104657808201518184015260208101905061102b565b50505050905090810190601f1680156110735780820380516001836020036101000a031916815260200191505b50848103825285818151815260200191508051906020019080838360005b838110156110ac578082015181840152602081019050611091565b50505050905090810190601f1680156110d95780820380516001836020036101000a031916815260200191505b50965050505050505060405180910390f35b3480156110f757600080fd5b5061113460048036038101908080359060200190929190803590602001909291908035906020019092919080359060200190929190505050613368565b6040518080602001806020018060200180602001858103855289818151815260200191508051906020019080838360005b83811015611180578082015181840152602081019050611165565b50505050905090810190601f1680156111ad5780820380516001836020036101000a031916815260200191505b50858103845288818151815260200191508051906020019080838360005b838110156111e65780820151818401526020810190506111cb565b50505050905090810190601f1680156112135780820380516001836020036101000a031916815260200191505b50858103835287818151815260200191508051906020019080838360005b8381101561124c578082015181840152602081019050611231565b50505050905090810190601f1680156112795780820380516001836020036101000a031916815260200191505b50858103825286818151815260200191508051906020019080838360005b838110156112b2578082015181840152602081019050611297565b50505050905090810190601f1680156112df5780820380516001836020036101000a031916815260200191505b509850505050505050505060405180910390f35b3480156112ff57600080fd5b5061131e60048036038101908080359060200190929190505050613655565b005b606061132b84613655565b60008481548110151561133a57fe5b906000526020600020018054600181600116156101000203166002900480601f0160208091040260200160405190810160405280929190818152602001828054600181600116156101000203166002900480156113d85780601f106113ad576101008083540402835291602001916113d8565b820191906000526020600020905b8154815290600101906020018083116113bb57829003601f168201915b505050505090506113e98184612966565b1515611483576040517f08c379a000000000000000000000000000000000000000000000000000000000815260040180806020018281038252603c8152602001807f6d69642061697220636f6c6c6973696f6e2c20796f75722070726f766964656481526020017f206f6c646861736820697320616c7265616479206f757464617465640000000081525060400191505060405180910390fd5b8160008581548110151561149357fe5b9060005260206000200190805190602001906114b0929190613a20565b507f417539fa9ccd237badba1b9662cace06db3c073f0d6ccf1a985f26e5f124ab0b848284336040518085815260200180602001806020018473ffffffffffffffffffffffffffffffffffffffff1673ffffffffffffffffffffffffffffffffffffffff168152602001838103835286818151815260200191508051906020019080838360005b83811015611552578082015181840152602081019050611537565b50505050905090810190601f16801561157f5780820380516001836020036101000a031916815260200191505b50838103825285818151815260200191508051906020019080838360005b838110156115b857808201518184015260208101905061159d565b50505050905090810190601f1680156115e55780820380516001836020036101000a031916815260200191505b50965050505050505060405180910390a150505050565b60008080549050905090565b60008181548110151561161757fe5b906000526020600020016000915090508054600181600116156101000203166002900480601f0160208091040260200160405190810160405280929190818152602001828054600181600116156101000203166002900480156116bb5780601f10611690576101008083540402835291602001916116bb565b820191906000526020600020905b81548152906001019060200180831161169e57829003601f168201915b505050505081565b60008060016000849080600181540180825580915050906001820390600052602060002001600090919290919091509080519060200190611705929190613a20565b50039050600160003373ffffffffffffffffffffffffffffffffffffffff1673ffffffffffffffffffffffffffffffffffffffff1681526020019081526020016000208190806001815401808255809150509060018203906000526020600020016000909192909190915055507f417539fa9ccd237badba1b9662cace06db3c073f0d6ccf1a985f26e5f124ab0b8184336040518084815260200180602001806020018473ffffffffffffffffffffffffffffffffffffffff1673ffffffffffffffffffffffffffffffffffffffff168152602001838103835260008152602001602001838103825285818151815260200191508051906020019080838360005b83811015611821578082015181840152602081019050611806565b50505050905090810190601f16801561184e5780820380516001836020036101000a031916815260200191505b509550505050505060405180910390a180915050919050565b6060600360003373ffffffffffffffffffffffffffffffffffffffff1673ffffffffffffffffffffffffffffffffffffffff1681526020019081526020016000208054806020026020016040519081016040528092919081815260200182805480156118f257602002820191906000526020600020905b8154815260200190600101908083116118de575b5050505050905090565b60608060008481548110151561190e57fe5b9060005260206000200160008481548110151561192757fe5b90600052602060002001818054600181600116156101000203166002900480601f0160208091040260200160405190810160405280929190818152602001828054600181600116156101000203166002900480156119c65780601f1061199b576101008083540402835291602001916119c6565b820191906000526020600020905b8154815290600101906020018083116119a957829003601f168201915b50505050509150808054600181600116156101000203166002900480601f016020809104026020016040519081016040528092919081815260200182805460018160011615610100020316600290048015611a625780601f10611a3757610100808354040283529160200191611a62565b820191906000526020600020905b815481529060010190602001808311611a4557829003601f168201915b50505050509050915091509250929050565b600060606000611a8384611e25565b9250600084815481101515611a9457fe5b906000526020600020018054600181600116156101000203166002900480601f016020809104026020016040519081016040528092919081815260200182805460018160011615610100020316600290048015611b325780601f10611b0757610100808354040283529160200191611b32565b820191906000526020600020905b815481529060010190602001808311611b1557829003601f168201915b505050505091506020604051908101604052806000815250600085815481101515611b5957fe5b906000526020600020019080519060200190611b76929190613a20565b508290505b60018060003373ffffffffffffffffffffffffffffffffffffffff1673ffffffffffffffffffffffffffffffffffffffff1681526020019081526020016000208054905003831015611c8857600160003373ffffffffffffffffffffffffffffffffffffffff1673ffffffffffffffffffffffffffffffffffffffff16815260200190815260200160002060018201815481101515611c1657fe5b9060005260206000200154600160003373ffffffffffffffffffffffffffffffffffffffff1673ffffffffffffffffffffffffffffffffffffffff16815260200190815260200160002082815481101515611c6d57fe5b90600052602060002001819055508080600101915050611b7b565b600160003373ffffffffffffffffffffffffffffffffffffffff1673ffffffffffffffffffffffffffffffffffffffff168152602001908152602001600020805480919060019003611cda9190613aa0565b506000604051908082528060200260200182016040528015611d0b5781602001602082028038833980820191505090505b50600260008681526020019081526020016000209080519060200190611d32929190613acc565b507f417539fa9ccd237badba1b9662cace06db3c073f0d6ccf1a985f26e5f124ab0b8483336040518084815260200180602001806020018473ffffffffffffffffffffffffffffffffffffffff1673ffffffffffffffffffffffffffffffffffffffff168152602001838103835285818151815260200191508051906020019080838360005b83811015611dd3578082015181840152602081019050611db8565b50505050905090810190601f168015611e005780820380516001836020036101000a031916815260200191505b508381038252600081526020016020019550505050505060405180910390a150505050565b600060606000600160003373ffffffffffffffffffffffffffffffffffffffff1673ffffffffffffffffffffffffffffffffffffffff168152602001908152602001600020805480602002602001604051908101604052809291908181526020018280548015611eb457602002820191906000526020600020905b815481526020019060010190808311611ea0575b50505050509150600090505b8151811015611efd57838282815181101515611ed857fe5b906020019060200201511415611ef057809250611f91565b8080600101915050611ec0565b6040517f08c379a000000000000000000000000000000000000000000000000000000000815260040180806020018281038252602a8152602001807f736f7272792c20796f7520617265206e6f7420746865206f776e6572206f662081526020017f746869732073686172650000000000000000000000000000000000000000000081525060400191505060405180910390fd5b5050919050565b6060600160003373ffffffffffffffffffffffffffffffffffffffff1673ffffffffffffffffffffffffffffffffffffffff16815260200190815260200160002080548060200260200160405190810160405280929190818152602001828054801561202357602002820191906000526020600020905b81548152602001906001019080831161200f575b5050505050905090565b60026020528160005260406000208181548110151561204857fe5b906000526020600020016000915091509054906101000a900473ffffffffffffffffffffffffffffffffffffffff1681565b606060008281548110151561208b57fe5b906000526020600020018054600181600116156101000203166002900480601f0160208091040260200160405190810160405280929190818152602001828054600181600116156101000203166002900480156121295780601f106120fe57610100808354040283529160200191612129565b820191906000526020600020905b81548152906001019060200180831161210c57829003601f168201915b50505050509050919050565b606060008061214385611e25565b50600260008681526020019081526020016000208054806020026020016040519081016040528092919081815260200182805480156121d757602002820191906000526020600020905b8160009054906101000a900473ffffffffffffffffffffffffffffffffffffffff1673ffffffffffffffffffffffffffffffffffffffff168152602001906001019080831161218d575b5050505050925060009150600090505b8251811015612251578373ffffffffffffffffffffffffffffffffffffffff16838281518110151561221557fe5b9060200190602002015173ffffffffffffffffffffffffffffffffffffffff1614156122445760019150612251565b80806001019150506121e7565b81156122eb576040517f08c379a000000000000000000000000000000000000000000000000000000000815260040180806020018281038252602f8152602001807f676976656e206164647265737320697320616c726561647920696e207468652081526020017f6c697374206f6620617574686f7273000000000000000000000000000000000081525060400191505060405180910390fd5b600260008681526020019081526020016000208490806001815401808255809150509060018203906000526020600020016000909192909190916101000a81548173ffffffffffffffffffffffffffffffffffffffff021916908373ffffffffffffffffffffffffffffffffffffffff160217905550507fa5f95b362483ce0ab47b70bc96230433d9ee4874011aedd5a8dced0db59948a7858533604051808481526020018373ffffffffffffffffffffffffffffffffffffffff1673ffffffffffffffffffffffffffffffffffffffff1681526020018273ffffffffffffffffffffffffffffffffffffffff1673ffffffffffffffffffffffffffffffffffffffff168152602001935050505060405180910390a15050505050565b606080606080606060008a81548110151561241f57fe5b9060005260206000200160008a81548110151561243857fe5b9060005260206000200160008a81548110151561245157fe5b9060005260206000200160008a81548110151561246a57fe5b9060005260206000200160008a81548110151561248357fe5b90600052602060002001848054600181600116156101000203166002900480601f0160208091040260200160405190810160405280929190818152602001828054600181600116156101000203166002900480156125225780601f106124f757610100808354040283529160200191612522565b820191906000526020600020905b81548152906001019060200180831161250557829003601f168201915b50505050509450838054600181600116156101000203166002900480601f0160208091040260200160405190810160405280929190818152602001828054600181600116156101000203166002900480156125be5780601f10612593576101008083540402835291602001916125be565b820191906000526020600020905b8154815290600101906020018083116125a157829003601f168201915b50505050509350828054600181600116156101000203166002900480601f01602080910402602001604051908101604052809291908181526020018280546001816001161561010002031660029004801561265a5780601f1061262f5761010080835404028352916020019161265a565b820191906000526020600020905b81548152906001019060200180831161263d57829003601f168201915b50505050509250818054600181600116156101000203166002900480601f0160208091040260200160405190810160405280929190818152602001828054600181600116156101000203166002900480156126f65780601f106126cb576101008083540402835291602001916126f6565b820191906000526020600020905b8154815290600101906020018083116126d957829003601f168201915b50505050509150808054600181600116156101000203166002900480601f0160208091040260200160405190810160405280929190818152602001828054600181600116156101000203166002900480156127925780601f1061276757610100808354040283529160200191612792565b820191906000526020600020905b81548152906001019060200180831161277557829003601f168201915b50505050509050945094509450945094509550955095509550959050565b7f507da6d6acb44b9f91cd61ee40df65be85702715c67175ad521b932dd105478c828233604051808481526020018373ffffffffffffffffffffffffffffffffffffffff1673ffffffffffffffffffffffffffffffffffffffff1681526020018273ffffffffffffffffffffffffffffffffffffffff1673ffffffffffffffffffffffffffffffffffffffff168152602001935050505060405180910390a161285882613655565b600360008273ffffffffffffffffffffffffffffffffffffffff1673ffffffffffffffffffffffffffffffffffffffff1681526020019081526020016000208290806001815401808255809150509060018203906000526020600020016000909192909190915055505050565b60606002600083815260200190815260200160002080548060200260200160405190810160405280929190818152602001828054801561295a57602002820191906000526020600020905b8160009054906101000a900473ffffffffffffffffffffffffffffffffffffffff1673ffffffffffffffffffffffffffffffffffffffff1681526020019060010190808311612910575b50505050509050919050565b6000816040518082805190602001908083835b60208310151561299e5780518252602082019150602081019050602083039250612979565b6001836020036101000a038019825116818451168082178552505050505050905001915050604051809103902060001916836040518082805190602001908083835b602083101515612a0557805182526020820191506020810190506020830392506129e0565b6001836020036101000a03801982511681845116808217855250505050505090500191505060405180910390206000191614905092915050565b600160205281600052604060002081815481101515612a5a57fe5b90600052602060002001600091509150505481565b60608060608060608060008c815481101515612a8757fe5b9060005260206000200160008c815481101515612aa057fe5b9060005260206000200160008c815481101515612ab957fe5b9060005260206000200160008c815481101515612ad257fe5b9060005260206000200160008c815481101515612aeb57fe5b9060005260206000200160008c815481101515612b0457fe5b90600052602060002001858054600181600116156101000203166002900480601f016020809104026020016040519081016040528092919081815260200182805460018160011615610100020316600290048015612ba35780601f10612b7857610100808354040283529160200191612ba3565b820191906000526020600020905b815481529060010190602001808311612b8657829003601f168201915b50505050509550848054600181600116156101000203166002900480601f016020809104026020016040519081016040528092919081815260200182805460018160011615610100020316600290048015612c3f5780601f10612c1457610100808354040283529160200191612c3f565b820191906000526020600020905b815481529060010190602001808311612c2257829003601f168201915b50505050509450838054600181600116156101000203166002900480601f016020809104026020016040519081016040528092919081815260200182805460018160011615610100020316600290048015612cdb5780601f10612cb057610100808354040283529160200191612cdb565b820191906000526020600020905b815481529060010190602001808311612cbe57829003601f168201915b50505050509350828054600181600116156101000203166002900480601f016020809104026020016040519081016040528092919081815260200182805460018160011615610100020316600290048015612d775780601f10612d4c57610100808354040283529160200191612d77565b820191906000526020600020905b815481529060010190602001808311612d5a57829003601f168201915b50505050509250818054600181600116156101000203166002900480601f016020809104026020016040519081016040528092919081815260200182805460018160011615610100020316600290048015612e135780601f10612de857610100808354040283529160200191612e13565b820191906000526020600020905b815481529060010190602001808311612df657829003601f168201915b50505050509150808054600181600116156101000203166002900480601f016020809104026020016040519081016040528092919081815260200182805460018160011615610100020316600290048015612eaf5780601f10612e8457610100808354040283529160200191612eaf565b820191906000526020600020905b815481529060010190602001808311612e9257829003601f168201915b5050505050905095509550955095509550955096509650965096509650969050565b600080612edd84611e25565b50612ee884846138cc565b91508190505b6001600260008681526020019081526020016000208054905003811015612fd2576002600085815260200190815260200160002060018201815481101515612f3257fe5b9060005260206000200160009054906101000a900473ffffffffffffffffffffffffffffffffffffffff166002600086815260200190815260200160002082815481101515612f7d57fe5b9060005260206000200160006101000a81548173ffffffffffffffffffffffffffffffffffffffff021916908373ffffffffffffffffffffffffffffffffffffffff1602179055508080600101915050612eee565b60026000858152602001908152602001600020805480919060019003612ff89190613b56565b507feaddf93a530474803d6daf35ae6cfec3a2afd075627019630766d27d7d4de949848433604051808481526020018373ffffffffffffffffffffffffffffffffffffffff1673ffffffffffffffffffffffffffffffffffffffff1681526020018273ffffffffffffffffffffffffffffffffffffffff1673ffffffffffffffffffffffffffffffffffffffff168152602001935050505060405180910390a150505050565b6060600360008373ffffffffffffffffffffffffffffffffffffffff1673ffffffffffffffffffffffffffffffffffffffff16815260200190815260200160002080548060200260200160405190810160405280929190818152602001828054801561312957602002820191906000526020600020905b815481526020019060010190808311613115575b50505050509050919050565b606080606060008681548110151561314957fe5b9060005260206000200160008681548110151561316257fe5b9060005260206000200160008681548110151561317b57fe5b90600052602060002001828054600181600116156101000203166002900480601f01602080910402602001604051908101604052809291908181526020018280546001816001161561010002031660029004801561321a5780601f106131ef5761010080835404028352916020019161321a565b820191906000526020600020905b8154815290600101906020018083116131fd57829003601f168201915b50505050509250818054600181600116156101000203166002900480601f0160208091040260200160405190810160405280929190818152602001828054600181600116156101000203166002900480156132b65780601f1061328b576101008083540402835291602001916132b6565b820191906000526020600020905b81548152906001019060200180831161329957829003601f168201915b50505050509150808054600181600116156101000203166002900480601f0160208091040260200160405190810160405280929190818152602001828054600181600116156101000203166002900480156133525780601f1061332757610100808354040283529160200191613352565b820191906000526020600020905b81548152906001019060200180831161333557829003601f168201915b5050505050905092509250925093509350939050565b60608060608060008881548110151561337d57fe5b9060005260206000200160008881548110151561339657fe5b906000526020600020016000888154811015156133af57fe5b906000526020600020016000888154811015156133c857fe5b90600052602060002001838054600181600116156101000203166002900480601f0160208091040260200160405190810160405280929190818152602001828054600181600116156101000203166002900480156134675780601f1061343c57610100808354040283529160200191613467565b820191906000526020600020905b81548152906001019060200180831161344a57829003601f168201915b50505050509350828054600181600116156101000203166002900480601f0160208091040260200160405190810160405280929190818152602001828054600181600116156101000203166002900480156135035780601f106134d857610100808354040283529160200191613503565b820191906000526020600020905b8154815290600101906020018083116134e657829003601f168201915b50505050509250818054600181600116156101000203166002900480601f01602080910402602001604051908101604052809291908181526020018280546001816001161561010002031660029004801561359f5780601f106135745761010080835404028352916020019161359f565b820191906000526020600020905b81548152906001019060200180831161358257829003601f168201915b50505050509150808054600181600116156101000203166002900480601f01602080910402602001604051908101604052809291908181526020018280546001816001161561010002031660029004801561363b5780601f106136105761010080835404028352916020019161363b565b820191906000526020600020905b81548152906001019060200180831161361e57829003601f168201915b505050505090509350935093509350945094509450949050565b6060600060606000600160003373ffffffffffffffffffffffffffffffffffffffff1673ffffffffffffffffffffffffffffffffffffffff1681526020019081526020016000208054806020026020016040519081016040528092919081815260200182805480156136e657602002820191906000526020600020905b8154815260200190600101908083116136d2575b50505050509350600092505b835183101561372c5784848481518110151561370a57fe5b90602001906020020151141561371f576138c5565b82806001019350506136f2565b600260008681526020019081526020016000208054806020026020016040519081016040528092919081815260200182805480156137bf57602002820191906000526020600020905b8160009054906101000a900473ffffffffffffffffffffffffffffffffffffffff1673ffffffffffffffffffffffffffffffffffffffff1681526020019060010190808311613775575b50505050509150600090505b8151811015613831573373ffffffffffffffffffffffffffffffffffffffff1682828151811015156137f957fe5b9060200190602002015173ffffffffffffffffffffffffffffffffffffffff161415613824576138c5565b80806001019150506137cb565b6040517f08c379a000000000000000000000000000000000000000000000000000000000815260040180806020018281038252602f8152602001807f736f7272792c20796f7520617265206e6f7420616c6c6f77656420746f206d6f81526020017f646966792074686973207368617265000000000000000000000000000000000081525060400191505060405180910390fd5b5050505050565b600080600090505b6002600085815260200190815260200160002080549050811015613985578273ffffffffffffffffffffffffffffffffffffffff16600260008681526020019081526020016000208281548110151561392957fe5b9060005260206000200160009054906101000a900473ffffffffffffffffffffffffffffffffffffffff1673ffffffffffffffffffffffffffffffffffffffff16141561397857809150613a19565b80806001019150506138d4565b6040517f08c379a000000000000000000000000000000000000000000000000000000000815260040180806020018281038252602b8152602001807f676976656e2061646472657373206973206e6f7420696e20746865206c69737481526020017f206f6620617574686f727300000000000000000000000000000000000000000081525060400191505060405180910390fd5b5092915050565b828054600181600116156101000203166002900490600052602060002090601f016020900481019282601f10613a6157805160ff1916838001178555613a8f565b82800160010185558215613a8f579182015b82811115613a8e578251825591602001919060010190613a73565b5b509050613a9c9190613b82565b5090565b815481835581811115613ac757818360005260206000209182019101613ac69190613b82565b5b505050565b828054828255906000526020600020908101928215613b45579160200282015b82811115613b445782518260006101000a81548173ffffffffffffffffffffffffffffffffffffffff021916908373ffffffffffffffffffffffffffffffffffffffff16021790555091602001919060010190613aec565b5b509050613b529190613ba7565b5090565b815481835581811115613b7d57818360005260206000209182019101613b7c9190613b82565b5b505050565b613ba491905b80821115613ba0576000816000905550600101613b88565b5090565b90565b613be791905b80821115613be357600081816101000a81549073ffffffffffffffffffffffffffffffffffffffff021916905550600101613bad565b5090565b905600a165627a7a723058201f77b9e413206e90517603e44764ace1a4405a190b9ea4ff4225a60ae05e53240029",
  "source": "pragma solidity ^0.4.24;\n\ncontract Shares {\n    string[] public shareToHashes;\n    mapping(address => uint[]) public ownerToShares;\n    mapping(uint=>address[]) public sharesToAuthors;\n\n    event Updated(\n        uint _pointer,\n        string _oldHash,\n        string _newHash,\n        address _updater\n    );\n    event Deleted(\n        uint _pointer,\n        address _deleter\n    );\n    event AuthorAdded(\n        uint _pointer,\n        address _newAuthor,\n        address _owner\n    );\n    event AuthorDeleted(\n        uint _pointer,\n        address _removedAuthor,\n        address _owner\n    );\n\n    function createShare(string newHash) public returns (uint){\n        uint pointer = shareToHashes.push(newHash) - 1;\n        ownerToShares[msg.sender].push(pointer);\n        emit Updated(pointer, \"\", newHash, msg.sender);\n        return pointer;\n    }\n    function removeShare(uint pointer) public {\n        uint index = revertIfNotMine(pointer);\n        \n        // delete hash\n        string memory oldHash = shareToHashes[pointer];\n        shareToHashes[pointer] = \"\";\n\n        // removeFromOwner\n        for (uint i = index; index < ownerToShares[msg.sender].length-1; i++){\n            ownerToShares[msg.sender][i] = ownerToShares[msg.sender][i+1];\n        }\n        ownerToShares[msg.sender].length--;\n\n        // removeFromAuthors\n        sharesToAuthors[pointer] = new address[](0);\n\n        emit Updated(pointer, oldHash, \"\", msg.sender);\n    }\n    function updateHash(uint pointer, string clientOldHash, string newHash) public {\n        revertIfNotAllowed(pointer);\n\n        string memory oldHash = shareToHashes[pointer];\n        require(equals(oldHash, clientOldHash), \"mid air collision, your provided oldhash is already outdated\");\n\n        shareToHashes[pointer] = newHash;\n\n        emit Updated(pointer, oldHash, newHash, msg.sender);\n    }\n    function addAuthor(uint pointer, address newAuthor) public {\n        revertIfNotMine(pointer);\n        address[] memory authors = sharesToAuthors[pointer];\n        bool found = false;\n        for (uint i = 0; i < authors.length; i++){\n            if (authors[i] == newAuthor){\n                found = true;\n                break;\n            }\n        }\n        if (found){\n            revert(\"given address is already in the list of authors\");\n        }\n        sharesToAuthors[pointer].push(newAuthor);\n        emit AuthorAdded(pointer, newAuthor, msg.sender);\n    }\n    function removeAuthor(uint pointer, address author) public {\n        revertIfNotMine(pointer);\n        uint index = findAuthorIndex(pointer, author);\n        for (uint i = index; i < sharesToAuthors[pointer].length-1; i++){\n            sharesToAuthors[pointer][i] = sharesToAuthors[pointer][i+1]; \n        }\n        sharesToAuthors[pointer].length--;\n        emit AuthorDeleted(pointer, author, msg.sender);\n    }\n    function getAuthorsForShare(uint pointer) public view returns (address[]) {\n        return sharesToAuthors[pointer];\n    }\n    function findAuthorIndex(uint pointer, address author) private view returns (uint) {\n        for (uint i = 0; i < sharesToAuthors[pointer].length; i++){\n            if (sharesToAuthors[pointer][i] == author){\n                return i;\n            }\n        }\n        revert (\"given address is not in the list of authors\");\n    }\n\n    function getMySharePointers() public view returns (uint[]) {\n        return ownerToShares[msg.sender];\n    } \n    function getHash(uint pointer) public view returns (string hash1){\n        return shareToHashes[pointer];\n    }\n    function getHashForTwo(uint pointer1, uint pointer2) public view returns (string hash1, string hash2){\n        return (shareToHashes[pointer1], shareToHashes[pointer2]);\n    }\n    function getHashForThree(uint pointer1, uint pointer2, uint pointer3) public view returns (string hash1, string hash2, string hash3){\n        return (shareToHashes[pointer1], shareToHashes[pointer2], shareToHashes[pointer3]);\n    }\n    function getHashForFour(uint pointer1, uint pointer2, uint pointer3, uint pointer4) public view returns (string hash1, string hash2, string hash3, string hash4){\n        return (shareToHashes[pointer1], shareToHashes[pointer2], shareToHashes[pointer3], shareToHashes[pointer4]);\n    }\n    function getHashForFive(uint pointer1, uint pointer2, uint pointer3, uint pointer4, uint pointer5) public view returns (string hash1, string hash2, string hash3, string hash4, string hash5){\n        return (shareToHashes[pointer1], shareToHashes[pointer2], shareToHashes[pointer3], shareToHashes[pointer4], shareToHashes[pointer5]);\n    }\n    function getHashForSix(uint pointer1, uint pointer2, uint pointer3, uint pointer4, uint pointer5, uint pointer6) public view returns (string hash1, string hash2, string hash3, string hash4, string hash5, string hash6){\n        return (shareToHashes[pointer1], shareToHashes[pointer2], shareToHashes[pointer3], shareToHashes[pointer4], shareToHashes[pointer5], shareToHashes[pointer6]);\n    }\n\n    function revertIfNotMine(uint pointer) public view returns (uint) {\n        uint[] memory myShares = ownerToShares[msg.sender];\n        for (uint i = 0; i < myShares.length; i++){\n            if (myShares[i] == pointer){\n                return i;\n            }\n        }\n        revert(\"sorry, you are not the owner of this share\");\n    }\n    function revertIfNotAllowed(uint pointer) public view {\n        // check for owner\n        uint[] memory myShares = ownerToShares[msg.sender];\n        for (uint i = 0; i < myShares.length; i++){\n            if (myShares[i] == pointer){\n                return;\n            }\n        }\n        // check for author\n        address[] memory authors = sharesToAuthors[pointer];\n        for (uint j = 0; j < authors.length; j++){\n            if (authors[j] == msg.sender){\n                return;\n            }\n        }\n        revert(\"sorry, you are not allowed to modify this share\");\n    }\n\n    function getShareCount() public view returns (uint) {\n        return shareToHashes.length;\n    }\n\n    // Invites here - should have been in a seperate contract :(\n\n    event NewInvite(\n        uint _pointer,\n        address _receiver,\n        address _sender\n    );\n\n    mapping(address => uint[]) walletToInvites;\n\n    function invite(uint pointer, address receiver) public {\n        emit NewInvite(pointer, receiver, msg.sender);\n        revertIfNotAllowed(pointer);\n        walletToInvites[receiver].push(pointer);\n    }\n\n    function getInvitesFor(address receiver) public view returns (uint[]) {\n        return walletToInvites[receiver];\n    }\n    function getMyInvites() public view returns (uint[]) {\n        return walletToInvites[msg.sender];\n    }\n    function equals(string a, string b) public pure returns (bool) {\n        return keccak256(bytes(a)) == keccak256(bytes(b));\n    }\n}",
  "sourcePath": "/home/schuppi/workspace/sharu/sharu-contract/contracts/Shares.sol",
  "compiler": {
    "name": "solc",
    "version": "0.4.24+commit.e67f0147.Emscripten.clang"
  },
  "schemaVersion": "2.0.1",
  "updatedAt": "2018-11-29T02:49:39.184Z"
}