{
  "contractName": "SingleFiles",
  "abi": [
    {
      "constant": true,
      "inputs": [
        {
          "name": "",
          "type": "address"
        }
      ],
      "name": "walletToSettings",
      "outputs": [
        {
          "name": "",
          "type": "string"
        }
      ],
      "payable": false,
      "stateMutability": "view",
      "type": "function"
    },
    {
      "constant": true,
      "inputs": [
        {
          "name": "",
          "type": "address"
        }
      ],
      "name": "walletToKey",
      "outputs": [
        {
          "name": "",
          "type": "string"
        }
      ],
      "payable": false,
      "stateMutability": "view",
      "type": "function"
    },
    {
      "constant": true,
      "inputs": [
        {
          "name": "",
          "type": "uint256"
        }
      ],
      "name": "groups",
      "outputs": [
        {
          "name": "",
          "type": "string"
        }
      ],
      "payable": false,
      "stateMutability": "view",
      "type": "function"
    },
    {
      "constant": true,
      "inputs": [
        {
          "name": "",
          "type": "uint256"
        },
        {
          "name": "",
          "type": "uint256"
        }
      ],
      "name": "groupToAuthors",
      "outputs": [
        {
          "name": "",
          "type": "address"
        }
      ],
      "payable": false,
      "stateMutability": "view",
      "type": "function"
    },
    {
      "constant": true,
      "inputs": [
        {
          "name": "",
          "type": "address"
        },
        {
          "name": "",
          "type": "uint256"
        }
      ],
      "name": "authorToGroups",
      "outputs": [
        {
          "name": "",
          "type": "uint256"
        }
      ],
      "payable": false,
      "stateMutability": "view",
      "type": "function"
    },
    {
      "anonymous": false,
      "inputs": [
        {
          "indexed": false,
          "name": "_owner",
          "type": "address"
        },
        {
          "indexed": false,
          "name": "_hash",
          "type": "string"
        }
      ],
      "name": "KeyAssigned",
      "type": "event"
    },
    {
      "anonymous": false,
      "inputs": [
        {
          "indexed": false,
          "name": "_owner",
          "type": "address"
        },
        {
          "indexed": false,
          "name": "_oldHash",
          "type": "string"
        },
        {
          "indexed": false,
          "name": "_newHash",
          "type": "string"
        }
      ],
      "name": "SettingsAssigned",
      "type": "event"
    },
    {
      "anonymous": false,
      "inputs": [
        {
          "indexed": false,
          "name": "_groupId",
          "type": "uint256"
        },
        {
          "indexed": false,
          "name": "_oldHash",
          "type": "string"
        },
        {
          "indexed": false,
          "name": "_newHash",
          "type": "string"
        },
        {
          "indexed": false,
          "name": "_sender",
          "type": "address"
        }
      ],
      "name": "NewHashForGroup",
      "type": "event"
    },
    {
      "anonymous": false,
      "inputs": [
        {
          "indexed": false,
          "name": "_groupId",
          "type": "uint256"
        },
        {
          "indexed": false,
          "name": "_newAuthor",
          "type": "address"
        },
        {
          "indexed": false,
          "name": "_sender",
          "type": "address"
        }
      ],
      "name": "NewAuthorForGroup",
      "type": "event"
    },
    {
      "anonymous": false,
      "inputs": [
        {
          "indexed": false,
          "name": "_groupId",
          "type": "uint256"
        },
        {
          "indexed": false,
          "name": "_removedAuthor",
          "type": "address"
        },
        {
          "indexed": false,
          "name": "_sender",
          "type": "address"
        }
      ],
      "name": "RemovedAuthorForGroup",
      "type": "event"
    },
    {
      "constant": false,
      "inputs": [
        {
          "name": "pubKeyHash",
          "type": "string"
        }
      ],
      "name": "setPubKeyHash",
      "outputs": [],
      "payable": false,
      "stateMutability": "nonpayable",
      "type": "function"
    },
    {
      "constant": true,
      "inputs": [
        {
          "name": "wallet",
          "type": "address"
        }
      ],
      "name": "getPubKeyHashFor",
      "outputs": [
        {
          "name": "",
          "type": "string"
        }
      ],
      "payable": false,
      "stateMutability": "view",
      "type": "function"
    },
    {
      "constant": true,
      "inputs": [],
      "name": "getMyPubKeyHash",
      "outputs": [
        {
          "name": "",
          "type": "string"
        }
      ],
      "payable": false,
      "stateMutability": "view",
      "type": "function"
    },
    {
      "constant": true,
      "inputs": [],
      "name": "getUserCount",
      "outputs": [
        {
          "name": "",
          "type": "uint256"
        }
      ],
      "payable": false,
      "stateMutability": "view",
      "type": "function"
    },
    {
      "constant": false,
      "inputs": [
        {
          "name": "newHash",
          "type": "string"
        }
      ],
      "name": "setSettingsHash",
      "outputs": [],
      "payable": false,
      "stateMutability": "nonpayable",
      "type": "function"
    },
    {
      "constant": true,
      "inputs": [],
      "name": "getSettingsHash",
      "outputs": [
        {
          "name": "",
          "type": "string"
        }
      ],
      "payable": false,
      "stateMutability": "view",
      "type": "function"
    },
    {
      "constant": false,
      "inputs": [
        {
          "name": "newHash",
          "type": "string"
        }
      ],
      "name": "createGroup",
      "outputs": [
        {
          "name": "",
          "type": "uint256"
        }
      ],
      "payable": false,
      "stateMutability": "nonpayable",
      "type": "function"
    },
    {
      "constant": false,
      "inputs": [
        {
          "name": "pointer",
          "type": "uint256"
        },
        {
          "name": "oldClientHash",
          "type": "string"
        },
        {
          "name": "newHash",
          "type": "string"
        }
      ],
      "name": "updateHashForGroup",
      "outputs": [],
      "payable": false,
      "stateMutability": "nonpayable",
      "type": "function"
    },
    {
      "constant": false,
      "inputs": [
        {
          "name": "pointer",
          "type": "uint256"
        }
      ],
      "name": "deleteGroup",
      "outputs": [],
      "payable": false,
      "stateMutability": "nonpayable",
      "type": "function"
    },
    {
      "constant": true,
      "inputs": [],
      "name": "getMyGroups",
      "outputs": [
        {
          "name": "",
          "type": "uint256[]"
        }
      ],
      "payable": false,
      "stateMutability": "view",
      "type": "function"
    },
    {
      "constant": true,
      "inputs": [
        {
          "name": "wallet",
          "type": "address"
        }
      ],
      "name": "getGroupsFor",
      "outputs": [
        {
          "name": "",
          "type": "uint256[]"
        }
      ],
      "payable": false,
      "stateMutability": "view",
      "type": "function"
    },
    {
      "constant": true,
      "inputs": [],
      "name": "getGroupCount",
      "outputs": [
        {
          "name": "",
          "type": "uint256"
        }
      ],
      "payable": false,
      "stateMutability": "view",
      "type": "function"
    },
    {
      "constant": true,
      "inputs": [
        {
          "name": "groupId",
          "type": "uint256"
        }
      ],
      "name": "getHashForGroup",
      "outputs": [
        {
          "name": "",
          "type": "string"
        }
      ],
      "payable": false,
      "stateMutability": "view",
      "type": "function"
    },
    {
      "constant": true,
      "inputs": [
        {
          "name": "groupId",
          "type": "uint256"
        }
      ],
      "name": "getAuthorsForGroup",
      "outputs": [
        {
          "name": "",
          "type": "address[]"
        }
      ],
      "payable": false,
      "stateMutability": "view",
      "type": "function"
    },
    {
      "constant": false,
      "inputs": [
        {
          "name": "pointer",
          "type": "uint256"
        },
        {
          "name": "newAuthor",
          "type": "address"
        }
      ],
      "name": "addAuthor",
      "outputs": [],
      "payable": false,
      "stateMutability": "nonpayable",
      "type": "function"
    },
    {
      "constant": false,
      "inputs": [
        {
          "name": "pointer",
          "type": "uint256"
        },
        {
          "name": "author",
          "type": "address"
        }
      ],
      "name": "deleteAuthor",
      "outputs": [],
      "payable": false,
      "stateMutability": "nonpayable",
      "type": "function"
    },
    {
      "constant": true,
      "inputs": [
        {
          "name": "pointer",
          "type": "uint256"
        }
      ],
      "name": "isAuthor",
      "outputs": [
        {
          "name": "",
          "type": "bool"
        }
      ],
      "payable": false,
      "stateMutability": "view",
      "type": "function"
    },
    {
      "constant": true,
      "inputs": [
        {
          "name": "pointer",
          "type": "uint256"
        },
        {
          "name": "author",
          "type": "address"
        }
      ],
      "name": "getIndexOfAuthor",
      "outputs": [
        {
          "name": "",
          "type": "uint256"
        }
      ],
      "payable": false,
      "stateMutability": "view",
      "type": "function"
    },
    {
      "constant": true,
      "inputs": [
        {
          "name": "pointer",
          "type": "uint256"
        },
        {
          "name": "author",
          "type": "address"
        }
      ],
      "name": "getIndexOfGroup",
      "outputs": [
        {
          "name": "",
          "type": "uint256"
        }
      ],
      "payable": false,
      "stateMutability": "view",
      "type": "function"
    },
    {
      "constant": true,
      "inputs": [
        {
          "name": "a",
          "type": "string"
        },
        {
          "name": "b",
          "type": "string"
        }
      ],
      "name": "equals",
      "outputs": [
        {
          "name": "",
          "type": "bool"
        }
      ],
      "payable": false,
      "stateMutability": "pure",
      "type": "function"
    }
  ],
  "bytecode": "0x60806040526000805534801561001457600080fd5b50612e8e806100246000396000f300608060405260043610610149576000357c0100000000000000000000000000000000000000000000000000000000900463ffffffff16806306545a931461014e5780630d238f9e1461017957806314688483146101be5780631b4e3e9b1461020b5780631f04fa531461026c5780633e5c49a11461032857806340b94487146103e457806345d88d2d146104745780634f9e6544146104a15780635256da691461055d5780635343d899146105ed5780635a17efd5146106565780636be3b544146106d8578063717585f41461072557806388d8da5f146107cb5780639616c8221461089257806396324bd41461094b578063a0660ec4146109f1578063b26b53fa14610a5a578063b5cb15f714610ad1578063d458bd5614610afc578063d8528f0514610b94578063dc2ddcae14610c00578063e62a14c414610c7d578063f0375ae114610cde575b600080fd5b34801561015a57600080fd5b50610163610d3f565b6040518082815260200191505060405180910390f35b34801561018557600080fd5b506101a460048036038101908080359060200190929190505050610d4c565b604051808215151515815260200191505060405180910390f35b3480156101ca57600080fd5b5061020960048036038101908080359060200190929190803573ffffffffffffffffffffffffffffffffffffffff169060200190929190505050610e11565b005b34801561021757600080fd5b5061025660048036038101908080359060200190929190803573ffffffffffffffffffffffffffffffffffffffff1690602001909291905050506111ed565b6040518082815260200191505060405180910390f35b34801561027857600080fd5b506102ad600480360381019080803573ffffffffffffffffffffffffffffffffffffffff16906020019092919050505061131b565b6040518080602001828103825283818151815260200191508051906020019080838360005b838110156102ed5780820151818401526020810190506102d2565b50505050905090810190601f16801561031a5780820380516001836020036101000a031916815260200191505b509250505060405180910390f35b34801561033457600080fd5b50610369600480360381019080803573ffffffffffffffffffffffffffffffffffffffff1690602001909291905050506113cb565b6040518080602001828103825283818151815260200191508051906020019080838360005b838110156103a957808201518184015260208101905061038e565b50505050905090810190601f1680156103d65780820380516001836020036101000a031916815260200191505b509250505060405180910390f35b3480156103f057600080fd5b506103f96114ac565b6040518080602001828103825283818151815260200191508051906020019080838360005b8381101561043957808201518184015260208101905061041e565b50505050905090810190601f1680156104665780820380516001836020036101000a031916815260200191505b509250505060405180910390f35b34801561048057600080fd5b5061049f6004803603810190808035906020019092919050505061158b565b005b3480156104ad57600080fd5b506104e2600480360381019080803573ffffffffffffffffffffffffffffffffffffffff1690602001909291905050506118bf565b6040518080602001828103825283818151815260200191508051906020019080838360005b83811015610522578082015181840152602081019050610507565b50505050905090810190601f16801561054f5780820380516001836020036101000a031916815260200191505b509250505060405180910390f35b34801561056957600080fd5b5061057261196f565b6040518080602001828103825283818151815260200191508051906020019080838360005b838110156105b2578082015181840152602081019050610597565b50505050905090810190601f1680156105df5780820380516001836020036101000a031916815260200191505b509250505060405180910390f35b3480156105f957600080fd5b50610654600480360381019080803590602001908201803590602001908080601f0160208091040260200160405190810160405280939291908181526020018383808284378201915050505050509192919290505050611a4e565b005b34801561066257600080fd5b5061068160048036038101908080359060200190929190505050611c6e565b6040518080602001828103825283818151815260200191508051906020019060200280838360005b838110156106c45780820151818401526020810190506106a9565b505050509050019250505060405180910390f35b3480156106e457600080fd5b5061072360048036038101908080359060200190929190803573ffffffffffffffffffffffffffffffffffffffff169060200190929190505050611d0f565b005b34801561073157600080fd5b5061075060048036038101908080359060200190929190505050611f35565b6040518080602001828103825283818151815260200191508051906020019080838360005b83811015610790578082015181840152602081019050610775565b50505050905090810190601f1680156107bd5780820380516001836020036101000a031916815260200191505b509250505060405180910390f35b3480156107d757600080fd5b50610878600480360381019080803590602001908201803590602001908080601f0160208091040260200160405190810160405280939291908181526020018383808284378201915050505050509192919290803590602001908201803590602001908080601f0160208091040260200160405190810160405280939291908181526020018383808284378201915050505050509192919290505050611ff0565b604051808215151515815260200191505060405180910390f35b34801561089e57600080fd5b5061094960048036038101908080359060200190929190803590602001908201803590602001908080601f0160208091040260200160405190810160405280939291908181526020018383808284378201915050505050509192919290803590602001908201803590602001908080601f01602080910402602001604051908101604052809392919081815260200183838082843782019150505050505091929192905050506120c9565b005b34801561095757600080fd5b506109766004803603810190808035906020019092919050505061243f565b6040518080602001828103825283818151815260200191508051906020019080838360005b838110156109b657808201518184015260208101905061099b565b50505050905090810190601f1680156109e35780820380516001836020036101000a031916815260200191505b509250505060405180910390f35b3480156109fd57600080fd5b50610a58600480360381019080803590602001908201803590602001908080601f01602080910402602001604051908101604052809392919081815260200183838082843782019150505050505091929192905050506124fa565b005b348015610a6657600080fd5b50610a8f600480360381019080803590602001909291908035906020019092919050505061276b565b604051808273ffffffffffffffffffffffffffffffffffffffff1673ffffffffffffffffffffffffffffffffffffffff16815260200191505060405180910390f35b348015610add57600080fd5b50610ae66127b8565b6040518082815260200191505060405180910390f35b348015610b0857600080fd5b50610b3d600480360381019080803573ffffffffffffffffffffffffffffffffffffffff1690602001909291905050506127c1565b6040518080602001828103825283818151815260200191508051906020019060200280838360005b83811015610b80578082015181840152602081019050610b65565b505050509050019250505060405180910390f35b348015610ba057600080fd5b50610ba9612858565b6040518080602001828103825283818151815260200191508051906020019060200280838360005b83811015610bec578082015181840152602081019050610bd1565b505050509050019250505060405180910390f35b348015610c0c57600080fd5b50610c67600480360381019080803590602001908201803590602001908080601f01602080910402602001604051908101604052809392919081815260200183838082843782019150505050505091929192905050506128ed565b6040518082815260200191505060405180910390f35b348015610c8957600080fd5b50610cc860048036038101908080359060200190929190803573ffffffffffffffffffffffffffffffffffffffff169060200190929190505050612b08565b6040518082815260200191505060405180910390f35b348015610cea57600080fd5b50610d29600480360381019080803573ffffffffffffffffffffffffffffffffffffffff16906020019092919080359060200190929190505050612c68565b6040518082815260200191505060405180910390f35b6000600380549050905090565b600080600090505b6004600084815260200190815260200160002080549050811015610e06573373ffffffffffffffffffffffffffffffffffffffff166004600085815260200190815260200160002082815481101515610da957fe5b9060005260206000200160009054906101000a900473ffffffffffffffffffffffffffffffffffffffff1673ffffffffffffffffffffffffffffffffffffffff161415610df95760019150610e0b565b8080600101915050610d54565b600091505b50919050565b600080600080610e2086610d4c565b1515610eba576040517f08c379a00000000000000000000000000000000000000000000000000000000081526004018080602001828103825260288152602001807f796f7520617265206e6f7420616c6c6f77656420746f206d6f6469667920746881526020017f69732067726f757000000000000000000000000000000000000000000000000081525060400191505060405180910390fd5b610ec486866111ed565b9350610ed08686612b08565b92508391505b6001600460008881526020019081526020016000208054905003821015610fba576004600087815260200190815260200160002060018301815481101515610f1a57fe5b9060005260206000200160009054906101000a900473ffffffffffffffffffffffffffffffffffffffff166004600088815260200190815260200160002083815481101515610f6557fe5b9060005260206000200160006101000a81548173ffffffffffffffffffffffffffffffffffffffff021916908373ffffffffffffffffffffffffffffffffffffffff1602179055508180600101925050610ed6565b60046000878152602001908152602001600020805480919060019003610fe09190612c98565b508290505b6001600560008773ffffffffffffffffffffffffffffffffffffffff1673ffffffffffffffffffffffffffffffffffffffff16815260200190815260200160002080549050038110156110f357600560008673ffffffffffffffffffffffffffffffffffffffff1673ffffffffffffffffffffffffffffffffffffffff1681526020019081526020016000206001820181548110151561108157fe5b9060005260206000200154600560008773ffffffffffffffffffffffffffffffffffffffff1673ffffffffffffffffffffffffffffffffffffffff168152602001908152602001600020828154811015156110d857fe5b90600052602060002001819055508080600101915050610fe5565b600560008673ffffffffffffffffffffffffffffffffffffffff1673ffffffffffffffffffffffffffffffffffffffff1681526020019081526020016000208054809190600190036111459190612cc4565b507fc6c45b5a6dc58277d4b4fbb57d9f5037893e42f6a8699611ff566ae2b257f2d1868633604051808481526020018373ffffffffffffffffffffffffffffffffffffffff1673ffffffffffffffffffffffffffffffffffffffff1681526020018273ffffffffffffffffffffffffffffffffffffffff1673ffffffffffffffffffffffffffffffffffffffff168152602001935050505060405180910390a1505050505050565b600080600090505b60046000858152602001908152602001600020805490508110156112a6578273ffffffffffffffffffffffffffffffffffffffff16600460008681526020019081526020016000208281548110151561124a57fe5b9060005260206000200160009054906101000a900473ffffffffffffffffffffffffffffffffffffffff1673ffffffffffffffffffffffffffffffffffffffff16141561129957809150611314565b80806001019150506111f5565b6040517f08c379a000000000000000000000000000000000000000000000000000000000815260040180806020018281038252601d8152602001807f61646472657373206973206e6f742061206b6e6f776e20617574686f7200000081525060200191505060405180910390fd5b5092915050565b60026020528060005260406000206000915090508054600181600116156101000203166002900480601f0160208091040260200160405190810160405280929190818152602001828054600181600116156101000203166002900480156113c35780601f10611398576101008083540402835291602001916113c3565b820191906000526020600020905b8154815290600101906020018083116113a657829003601f168201915b505050505081565b6060600160008373ffffffffffffffffffffffffffffffffffffffff1673ffffffffffffffffffffffffffffffffffffffff1681526020019081526020016000208054600181600116156101000203166002900480601f0160208091040260200160405190810160405280929190818152602001828054600181600116156101000203166002900480156114a05780601f10611475576101008083540402835291602001916114a0565b820191906000526020600020905b81548152906001019060200180831161148357829003601f168201915b50505050509050919050565b6060600260003373ffffffffffffffffffffffffffffffffffffffff1673ffffffffffffffffffffffffffffffffffffffff1681526020019081526020016000208054600181600116156101000203166002900480601f0160208091040260200160405190810160405280929190818152602001828054600181600116156101000203166002900480156115815780601f1061155657610100808354040283529160200191611581565b820191906000526020600020905b81548152906001019060200180831161156457829003601f168201915b5050505050905090565b60008060008061159a85610d4c565b1515611634576040517f08c379a00000000000000000000000000000000000000000000000000000000081526004018080602001828103825260288152602001807f796f7520617265206e6f7420616c6c6f77656420746f2064656c65746520746881526020017f69732067726f757000000000000000000000000000000000000000000000000081525060400191505060405180910390fd5b602060405190810160405280600081525060038681548110151561165457fe5b906000526020600020019080519060200190611671929190612cf0565b50600093505b60046000868152602001908152602001600020805490508410156118605760046000868152602001908152602001600020848154811015156116b557fe5b9060005260206000200160009054906101000a900473ffffffffffffffffffffffffffffffffffffffff1692506116ec8584612b08565b91508190505b6001600560008573ffffffffffffffffffffffffffffffffffffffff1673ffffffffffffffffffffffffffffffffffffffff168152602001908152602001600020805490500381101561180057600560008473ffffffffffffffffffffffffffffffffffffffff1673ffffffffffffffffffffffffffffffffffffffff1681526020019081526020016000206001820181548110151561178e57fe5b9060005260206000200154600560008573ffffffffffffffffffffffffffffffffffffffff1673ffffffffffffffffffffffffffffffffffffffff168152602001908152602001600020828154811015156117e557fe5b906000526020600020018190555080806001019150506116f2565b600560008473ffffffffffffffffffffffffffffffffffffffff1673ffffffffffffffffffffffffffffffffffffffff1681526020019081526020016000208054809190600190036118529190612cc4565b508380600101945050611677565b60006040519080825280602002602001820160405280156118905781602001602082028038833980820191505090505b506004600087815260200190815260200160002090805190602001906118b7929190612d70565b505050505050565b60016020528060005260406000206000915090508054600181600116156101000203166002900480601f0160208091040260200160405190810160405280929190818152602001828054600181600116156101000203166002900480156119675780601f1061193c57610100808354040283529160200191611967565b820191906000526020600020905b81548152906001019060200180831161194a57829003601f168201915b505050505081565b6060600160003373ffffffffffffffffffffffffffffffffffffffff1673ffffffffffffffffffffffffffffffffffffffff1681526020019081526020016000208054600181600116156101000203166002900480601f016020809104026020016040519081016040528092919081815260200182805460018160011615610100020316600290048015611a445780601f10611a1957610100808354040283529160200191611a44565b820191906000526020600020905b815481529060010190602001808311611a2757829003601f168201915b5050505050905090565b6060600160003373ffffffffffffffffffffffffffffffffffffffff1673ffffffffffffffffffffffffffffffffffffffff1681526020019081526020016000208054600181600116156101000203166002900480601f016020809104026020016040519081016040528092919081815260200182805460018160011615610100020316600290048015611b235780601f10611af857610100808354040283529160200191611b23565b820191906000526020600020905b815481529060010190602001808311611b0657829003601f168201915b50505050509050600081511415611b465760008081548092919060010191905055505b81600160003373ffffffffffffffffffffffffffffffffffffffff1673ffffffffffffffffffffffffffffffffffffffff1681526020019081526020016000209080519060200190611b99929190612cf0565b507f1fb58797a78da0a319b6f2b0fef8e28f72f00d196e567cb87396936acd81e34a3383604051808373ffffffffffffffffffffffffffffffffffffffff1673ffffffffffffffffffffffffffffffffffffffff16815260200180602001828103825283818151815260200191508051906020019080838360005b83811015611c2f578082015181840152602081019050611c14565b50505050905090810190601f168015611c5c5780820380516001836020036101000a031916815260200191505b50935050505060405180910390a15050565b606060046000838152602001908152602001600020805480602002602001604051908101604052809291908181526020018280548015611d0357602002820191906000526020600020905b8160009054906101000a900473ffffffffffffffffffffffffffffffffffffffff1673ffffffffffffffffffffffffffffffffffffffff1681526020019060010190808311611cb9575b50505050509050919050565b611d1882610d4c565b1515611db2576040517f08c379a00000000000000000000000000000000000000000000000000000000081526004018080602001828103825260288152602001807f796f7520617265206e6f7420616c6c6f77656420746f206d6f6469667920746881526020017f69732067726f757000000000000000000000000000000000000000000000000081525060400191505060405180910390fd5b600460008381526020019081526020016000208190806001815401808255809150509060018203906000526020600020016000909192909190916101000a81548173ffffffffffffffffffffffffffffffffffffffff021916908373ffffffffffffffffffffffffffffffffffffffff16021790555050600560008273ffffffffffffffffffffffffffffffffffffffff1673ffffffffffffffffffffffffffffffffffffffff1681526020019081526020016000208290806001815401808255809150509060018203906000526020600020016000909192909190915055507fa6ea248f48e623e2c6c3b895744231f891c489c323e1c575d4772139bd8abb34828233604051808481526020018373ffffffffffffffffffffffffffffffffffffffff1673ffffffffffffffffffffffffffffffffffffffff1681526020018273ffffffffffffffffffffffffffffffffffffffff1673ffffffffffffffffffffffffffffffffffffffff168152602001935050505060405180910390a15050565b6060600382815481101515611f4657fe5b906000526020600020018054600181600116156101000203166002900480601f016020809104026020016040519081016040528092919081815260200182805460018160011615610100020316600290048015611fe45780601f10611fb957610100808354040283529160200191611fe4565b820191906000526020600020905b815481529060010190602001808311611fc757829003601f168201915b50505050509050919050565b6000816040518082805190602001908083835b6020831015156120285780518252602082019150602081019050602083039250612003565b6001836020036101000a038019825116818451168082178552505050505050905001915050604051809103902060001916836040518082805190602001908083835b60208310151561208f578051825260208201915060208101905060208303925061206a565b6001836020036101000a03801982511681845116808217855250505050505090500191505060405180910390206000191614905092915050565b60606120d484610d4c565b151561216e576040517f08c379a00000000000000000000000000000000000000000000000000000000081526004018080602001828103825260288152602001807f796f7520617265206e6f7420616c6c6f77656420746f206368616e676520746881526020017f69732067726f757000000000000000000000000000000000000000000000000081525060400191505060405180910390fd5b60038481548110151561217d57fe5b906000526020600020018054600181600116156101000203166002900480601f01602080910402602001604051908101604052809291908181526020018280546001816001161561010002031660029004801561221b5780601f106121f05761010080835404028352916020019161221b565b820191906000526020600020905b8154815290600101906020018083116121fe57829003601f168201915b5050505050905061222c8184611ff0565b15156122c6576040517f08c379a000000000000000000000000000000000000000000000000000000000815260040180806020018281038252603c8152602001807f6d69642061697220636f6c6c6973696f6e2c20796f75722070726f766964656481526020017f206f6c646861736820697320616c7265616479206f757464617465640000000081525060400191505060405180910390fd5b816003858154811015156122d657fe5b9060005260206000200190805190602001906122f3929190612cf0565b507f683886c93102549dcb8c3b0ae93072cb68b652ee32e0e6801f7a2da04f3c8ac9848284336040518085815260200180602001806020018473ffffffffffffffffffffffffffffffffffffffff1673ffffffffffffffffffffffffffffffffffffffff168152602001838103835286818151815260200191508051906020019080838360005b8381101561239557808201518184015260208101905061237a565b50505050905090810190601f1680156123c25780820380516001836020036101000a031916815260200191505b50838103825285818151815260200191508051906020019080838360005b838110156123fb5780820151818401526020810190506123e0565b50505050905090810190601f1680156124285780820380516001836020036101000a031916815260200191505b50965050505050505060405180910390a150505050565b60038181548110151561244e57fe5b906000526020600020016000915090508054600181600116156101000203166002900480601f0160208091040260200160405190810160405280929190818152602001828054600181600116156101000203166002900480156124f25780601f106124c7576101008083540402835291602001916124f2565b820191906000526020600020905b8154815290600101906020018083116124d557829003601f168201915b505050505081565b6060600260003373ffffffffffffffffffffffffffffffffffffffff1673ffffffffffffffffffffffffffffffffffffffff1681526020019081526020016000208054600181600116156101000203166002900480601f0160208091040260200160405190810160405280929190818152602001828054600181600116156101000203166002900480156125cf5780601f106125a4576101008083540402835291602001916125cf565b820191906000526020600020905b8154815290600101906020018083116125b257829003601f168201915b5050505050905081600260003373ffffffffffffffffffffffffffffffffffffffff1673ffffffffffffffffffffffffffffffffffffffff1681526020019081526020016000209080519060200190612629929190612cf0565b507fb41a44eeb100749c465d94757d9426848796148c9537608dab03a93397e47df5338284604051808473ffffffffffffffffffffffffffffffffffffffff1673ffffffffffffffffffffffffffffffffffffffff1681526020018060200180602001838103835285818151815260200191508051906020019080838360005b838110156126c45780820151818401526020810190506126a9565b50505050905090810190601f1680156126f15780820380516001836020036101000a031916815260200191505b50838103825284818151815260200191508051906020019080838360005b8381101561272a57808201518184015260208101905061270f565b50505050905090810190601f1680156127575780820380516001836020036101000a031916815260200191505b509550505050505060405180910390a15050565b60046020528160005260406000208181548110151561278657fe5b906000526020600020016000915091509054906101000a900473ffffffffffffffffffffffffffffffffffffffff1681565b60008054905090565b6060600560008373ffffffffffffffffffffffffffffffffffffffff1673ffffffffffffffffffffffffffffffffffffffff16815260200190815260200160002080548060200260200160405190810160405280929190818152602001828054801561284c57602002820191906000526020600020905b815481526020019060010190808311612838575b50505050509050919050565b6060600560003373ffffffffffffffffffffffffffffffffffffffff1673ffffffffffffffffffffffffffffffffffffffff1681526020019081526020016000208054806020026020016040519081016040528092919081815260200182805480156128e357602002820191906000526020600020905b8154815260200190600101908083116128cf575b5050505050905090565b6000806001600384908060018154018082558091505090600182039060005260206000200160009091929091909150908051906020019061292f929190612cf0565b50039050600460008281526020019081526020016000203390806001815401808255809150509060018203906000526020600020016000909192909190916101000a81548173ffffffffffffffffffffffffffffffffffffffff021916908373ffffffffffffffffffffffffffffffffffffffff16021790555050600560003373ffffffffffffffffffffffffffffffffffffffff1673ffffffffffffffffffffffffffffffffffffffff1681526020019081526020016000208190806001815401808255809150509060018203906000526020600020016000909192909190915055507f683886c93102549dcb8c3b0ae93072cb68b652ee32e0e6801f7a2da04f3c8ac98184336040518084815260200180602001806020018473ffffffffffffffffffffffffffffffffffffffff1673ffffffffffffffffffffffffffffffffffffffff168152602001838103835260008152602001602001838103825285818151815260200191508051906020019080838360005b83811015612ac2578082015181840152602081019050612aa7565b50505050905090810190601f168015612aef5780820380516001836020036101000a031916815260200191505b509550505050505060405180910390a180915050919050565b600080600090505b600560008473ffffffffffffffffffffffffffffffffffffffff1673ffffffffffffffffffffffffffffffffffffffff16815260200190815260200160002080549050811015612bcd5783600560008573ffffffffffffffffffffffffffffffffffffffff1673ffffffffffffffffffffffffffffffffffffffff16815260200190815260200160002082815481101515612ba757fe5b90600052602060002001541415612bc057809150612c61565b8080600101915050612b10565b6040517f08c379a00000000000000000000000000000000000000000000000000000000081526004018080602001828103825260238152602001807f706f696e746572206973206e6f7420696e20617574686f72732067726f75706c81526020017f697374000000000000000000000000000000000000000000000000000000000081525060400191505060405180910390fd5b5092915050565b600560205281600052604060002081815481101515612c8357fe5b90600052602060002001600091509150505481565b815481835581811115612cbf57818360005260206000209182019101612cbe9190612dfa565b5b505050565b815481835581811115612ceb57818360005260206000209182019101612cea9190612dfa565b5b505050565b828054600181600116156101000203166002900490600052602060002090601f016020900481019282601f10612d3157805160ff1916838001178555612d5f565b82800160010185558215612d5f579182015b82811115612d5e578251825591602001919060010190612d43565b5b509050612d6c9190612dfa565b5090565b828054828255906000526020600020908101928215612de9579160200282015b82811115612de85782518260006101000a81548173ffffffffffffffffffffffffffffffffffffffff021916908373ffffffffffffffffffffffffffffffffffffffff16021790555091602001919060010190612d90565b5b509050612df69190612e1f565b5090565b612e1c91905b80821115612e18576000816000905550600101612e00565b5090565b90565b612e5f91905b80821115612e5b57600081816101000a81549073ffffffffffffffffffffffffffffffffffffffff021916905550600101612e25565b5090565b905600a165627a7a72305820389b1282850ce1195e995c4945140780ec370040c96b549d9d0a473ae1d3975d0029",
  "source": "pragma solidity ^0.4.24;\n\ncontract SingleFiles{\n    uint userCount = 0;\n    mapping(address => string) public walletToKey;\n    event KeyAssigned(\n        address _owner,\n        string _hash\n    );\n    function setPubKeyHash(string pubKeyHash) public {\n        string memory current = walletToKey[msg.sender];\n        if (bytes(current).length == 0){\n            userCount++;\n        }\n        walletToKey[msg.sender] = pubKeyHash;\n        emit KeyAssigned(msg.sender, pubKeyHash);\n    }\n    function getPubKeyHashFor(address wallet) public view returns (string) {\n        return walletToKey[wallet];\n    }\n    function getMyPubKeyHash() public view returns (string) {\n        return walletToKey[msg.sender];\n    }\n    function getUserCount() public view returns (uint) {\n        return userCount;\n    }\n\n    mapping(address => string) public walletToSettings;\n    event SettingsAssigned(\n        address _owner,\n        string _oldHash,\n        string _newHash\n    );\n    function setSettingsHash(string newHash) public {\n        string memory oldHash = walletToSettings[msg.sender];\n        walletToSettings[msg.sender] = newHash;\n        emit SettingsAssigned(msg.sender, oldHash, newHash);\n    }\n    function getSettingsHash() public view returns (string) {\n        return walletToSettings[msg.sender];\n    }\n\n    string[] public groups;\n    mapping(uint => address[]) public groupToAuthors;\n    mapping(address => uint[]) public authorToGroups;\n    event NewHashForGroup(\n        uint _groupId,\n        string _oldHash,\n        string _newHash,\n        address _sender\n    );\n    event NewAuthorForGroup(\n        uint _groupId,\n        address _newAuthor,\n        address _sender\n    );\n    event RemovedAuthorForGroup(\n        uint _groupId,\n        address _removedAuthor,\n        address _sender\n    );\n    function createGroup(string newHash) public returns (uint){\n        uint pointer = groups.push(newHash) - 1;\n        groupToAuthors[pointer].push(msg.sender);\n        authorToGroups[msg.sender].push(pointer);\n        emit NewHashForGroup(pointer, \"\", newHash, msg.sender);\n        return pointer;\n    }\n    function updateHashForGroup(uint pointer, string oldClientHash, string newHash) public {\n        if (!isAuthor(pointer)){\n            revert(\"you are not allowed to change this group\");\n        }\n        string memory oldHash = groups[pointer];\n        require(equals(oldHash, oldClientHash), \"mid air collision, your provided oldhash is already outdated\");\n        groups[pointer] = newHash;\n        emit NewHashForGroup(pointer, oldHash, newHash, msg.sender);\n    }\n    function deleteGroup(uint pointer) public {\n        if (!isAuthor(pointer)){\n            revert(\"you are not allowed to delete this group\");\n        }\n        groups[pointer] = \"\";\n        for (uint i = 0; i < groupToAuthors[pointer].length; i++){\n            address authorToRemove = groupToAuthors[pointer][i];\n            uint index = getIndexOfGroup(pointer, authorToRemove);\n            for (uint j = index; j < authorToGroups[authorToRemove].length-1; j++){\n                authorToGroups[authorToRemove][j] = authorToGroups[authorToRemove][j+1];\n            }\n            authorToGroups[authorToRemove].length--;\n        }\n        groupToAuthors[pointer] = new address[](0);\n    }\n    function getMyGroups() public view returns (uint[]) {\n        return authorToGroups[msg.sender];\n    }\n    function getGroupsFor(address wallet) public view returns (uint[]) {\n        return authorToGroups[wallet];\n    }\n    function getGroupCount() public view returns (uint) {\n        return groups.length;\n    }\n    function getHashForGroup(uint groupId) public view returns (string){\n        return groups[groupId];\n    }\n    function getAuthorsForGroup(uint groupId) public view returns (address[]){\n        return groupToAuthors[groupId];\n    }\n    function addAuthor(uint pointer, address newAuthor) public {\n        if (!isAuthor(pointer)){\n            revert(\"you are not allowed to modify this group\");\n        }\n        groupToAuthors[pointer].push(newAuthor);\n        authorToGroups[newAuthor].push(pointer);\n        emit NewAuthorForGroup(pointer, newAuthor, msg.sender);\n    }\n    function deleteAuthor(uint pointer, address author) public {\n        if (!isAuthor(pointer)){\n            revert(\"you are not allowed to modify this group\");\n        }\n        uint index = getIndexOfAuthor(pointer, author);\n        uint otherIndex = getIndexOfGroup(pointer, author);\n        for (uint i = index; i < groupToAuthors[pointer].length-1; i++){\n            groupToAuthors[pointer][i] = groupToAuthors[pointer][i+1];\n        }\n        groupToAuthors[pointer].length--;\n        for (uint j = otherIndex; j < authorToGroups[author].length-1; j++){\n            authorToGroups[author][j] = authorToGroups[author][j+1];\n        }\n        authorToGroups[author].length--;\n        emit RemovedAuthorForGroup(pointer, author, msg.sender);\n    }\n    function isAuthor(uint pointer) public view returns (bool) {\n        for (uint i = 0; i < groupToAuthors[pointer].length; i++){\n            if (groupToAuthors[pointer][i] == msg.sender){\n                return true;\n            }\n        }\n        return false;\n    } \n    function getIndexOfAuthor(uint pointer, address author) public view returns (uint) {\n        for (uint i = 0; i < groupToAuthors[pointer].length; i++){\n            if (groupToAuthors[pointer][i] == author){\n                return i;\n            }\n        }\n        revert(\"address is not a known author\");\n    }\n    function getIndexOfGroup(uint pointer, address author) public view returns (uint) {\n        for (uint i = 0; i < authorToGroups[author].length; i++){\n            if (authorToGroups[author][i] == pointer){\n                return i;\n            }\n        }\n        revert(\"pointer is not in authors grouplist\");\n    }\n    function equals(string a, string b) public pure returns (bool) {\n        return keccak256(bytes(a)) == keccak256(bytes(b));\n    }\n}",
  "sourcePath": "/home/schuppi/workspace/sharu/sharu-contract/contracts/SingleFiles.sol",
  "compiler": {
    "name": "solc",
    "version": "0.4.24+commit.e67f0147.Emscripten.clang"
  },
  "schemaVersion": "2.0.1",
  "updatedAt": "2018-11-29T02:49:39.198Z"
}